:020000040800F2
:10000000C008002049010008950D0008810900087A
:10001000850B000811080008B11C00080000000052
:10002000000000000000000000000000D1130008E4
:1000300013080008000000005D130008F914000810
:100040006301000863010008630100086301000800
:1000500063010008630100086301000863010008F0
:1000600063010008630100086301000863010008E0
:1000700063010008630100086301000863010008D0
:1000800063010008630100086301000863010008C0
:1000900063010008630100086301000863010008B0
:1000A000630100084D1500086301000863010008A2
:1000B00009160008630100086301000863010008D5
:1000C0006301000863010008630100086301000880
:1000D00063010008551B0008630100086301000864
:1000E0006301000863010008630100086301000860
:1000F0006301000863010008630100086301000850
:10010000630100086301000863010008630100083F
:10011000630100086301000863010008630100082F
:10012000630100086301000863010008630100081F
:10013000DFF810D000F02CFB004800475D260008D7
:10014000AFF30080C00800200648804706480047FB
:10015000FEE7FEE7FEE7FEE7FEE7FEE7FEE7FEE777
:10016000FEE7FEE7FD1400083101000840EA010344
:100170009B0703D009E008C9121F08C0042AFAD25D
:1001800003E011F8013B00F8013B521EF9D2704721
:1001900080EA010210B502F00043400022D04A007C
:1001A0001FD0010E01EB1261C0F35600C2F35602DC
:1001B00040F4000042F40002A0FB022000047F395A
:1001C000140400D0401C50EA124001D44000491EE3
:1001D000C2B20C0604EBD010401C4008802A02D0AA
:1001E00003E0002010BD20F00100002900DA00200B
:1001F000184310BD2DE9FE4F804681EA0300C00F71
:100200000C46009021F0004123F00045B8EB0200BD
:10021000A94105D24046214690461C460B4602465F
:1002200023F00040104347D0270DC7F30A00C3F363
:100230000A510290401A019040286BDAC3F3130070
:1002400040F4801B0098924620B10023D2EB030AB1
:1002500063EB0B0B01985946C0F14002504600F089
:10026000F0F906460D4650465946019A00F008FA44
:1002700010EB08006141002487EA115284EAE77319
:100280001A4340D0009A62B3019A012A4FEA0752FA
:1002900015DC001B61EB02014FF0004202EA07523D
:1002A000CDE90042001C41F5801132462B4600F09A
:1002B00008FA03B0BDE8F08F40462146F9E7001B7D
:1002C00061EB0201001C41F5801300185B4120180E
:1002D000A2F5001747EB030140EAD570B6196D414E
:1002E00011E06D084FEA360645EAC0754FEA07523D
:1002F000001B61EB0201001C41F5801149084FEA27
:1003000030000019514132462B4603B0BDE8F04F92
:1003100000F0C8B90098012240000023D0EB02028F
:1003200063EBE073009821464FEAE074B8EB0000FD
:1003300061EB0401E9E783F000435BE781F00041F2
:1003400058E72DE9FE4F81EA030404F0004421F050
:10035000004100944FF0000B23F0004350EA0104E9
:100360005ED052EA03045BD0C3F30A54C1F30A55CA
:100370002C44A4F2F3340194A0FB0254C1F3130102
:1003800041F48011C3F3130343F4801301FB0244CF
:1003900000FB034E840A970A44EA815447EA8357D4
:1003A000A4FB076802958D0A05FB07854FEA932C8D
:1003B00004FB0C542705029D4FEA065847EA1637FE
:1003C000B5EB08056EEB070C870E920E47EA811716
:1003D00042EA8312A7FB0201B6EB0B0164EB0004B7
:1003E0002B0D43EA0C335E1844EB1C50DA465146A1
:1003F000E7FB0201C5F313044FEA0B3343EA14533E
:100400004FEA0432019C43EA0603A4F10C0402946F
:10041000009CCDE900B400F054F903B0BDE8F08FC2
:1004200000200146F9E72DE9F04D81EA030404F0CC
:10043000004B21F0004514464FF0000A23F0004124
:1004400050EA050220D054EA01021DD0C5F30A5734
:100450000246C5F31303C1F31300C1F30A5640F477
:10046000801543F48013A7EB0608101BD64608F24C
:10047000FD3873EB050002D308F1010801E0921882
:100480005B41B8F1000F03DA00200146BDE8F08DB2
:1004900000204FF48011064684460EE0171B73EBD4
:1004A000050705D3121B63EB050306434CEA010C59
:1004B00049084FEA300092185B4150EA0107EDD13C
:1004C00052EA030012D082EA040083EA05010843DD
:1004D00005D0101BAB4106D20122002306E000220A
:1004E0004FF0004302E06FF0010253101AEB0600D8
:1004F0004CEB085110EB0A0041EB0B01BDE8F04D4D
:1005000000F0D0B800F0004220F00040C10DC0F370
:10051000160040F400007F2901DA00207047962978
:1005200003DCC1F19601C84001E096398840002AF9
:10053000F4D04042704720F00040C10DC0F31600D7
:1005400040F400007F2901DA00207047962903DC7F
:10055000C1F19601C840704796398840704700F055
:10056000004230F000400AD0C10D01F56071C0F3C7
:10057000160042EA0151C2084007114370470020AB
:100580000146704730B5041E71F1000404DB4FF0E2
:100590000044404264EB0101141E73F1000405DBCA
:1005A0001C464FF00043524263EB0403994208BFDC
:1005B000904230BD30B50B46014600202022012478
:1005C00009E021FA02F59D4205D303FA02F5491B21
:1005D00004FA02F52844151EA2F10102F1DC30BD37
:1005E0002DE9F05F0546002092469B468846064668
:1005F000814640241BE0284641464746224600F0FB
:100600002FF853465A46C01A914110D31146184646
:10061000224600F016F82D1A67EB01084F462246D5
:100620000120002100F00DF817EB00094E41201EBB
:10063000A4F10104DFDC484631462A464346BDE8C2
:10064000F09F202A04DB203A00FA02F100207047D4
:100650009140C2F1200320FA03F319439040704700
:10066000202A04DB203A21FA02F00021704721FA07
:1006700002F3D040C2F1200291400843194670476E
:10068000202A06DBCB17203A41FA02F043EAE07356
:1006900006E041FA02F3D040C2F120029140084343
:1006A0001946704710B5141E73F1000408DA401C97
:1006B00041F1000192185B411A4301D120F0010081
:1006C00010BD2DE9F04D92469B4611B1B1FA81F271
:1006D00002E0B0FA80F220329046FFF7B2FF044603
:1006E0000F4640EA0A0041EA0B0153465A460843C6
:1006F00013D0114653EA010019D0C8F14002504608
:10070000FFF7AEFF05460E46504659464246FFF7F4
:1007100098FF084305D0012004E020463946BDE893
:10072000F08D0020054346EAE0762C4337430A98D3
:100730006305E40AA0EB08000022FD0A44EA4754DE
:100740000A3002D500200146E9E701051019694188
:10075000DDE9084500196941BDE8F04DA2E7C1F3A4
:100760000A52C1F3130140F2FF3341F480119A425F
:1007700002DA00200146704740F233439A42A2F267
:10078000334202DC5242FFF76BBFFFF75ABF000053
:10079000064C074D06E0E06840F0010394E80700CE
:1007A00098471034AC42F6D3FFF7C6FC304500083A
:1007B0005045000810B500F0A1FE4FF4A06000F015
:1007C0001DFB0121084600F0E7FD104C01212046E9
:1007D00000F08EF801F0DCFE00F072FB00F0BAF8D9
:1007E00000F0A0F900214FF4616000F007FA01F079
:1007F00007FA01F027FA0121084600F0CDFD204656
:10080000BDE81040012100F073B800000004300082
:10081000FEE7704770B5FF2000F05CF9FF2000F0A4
:1008200059F9084D4FF480442146284600F08EF8CF
:10083000012001F0CBFE21462846BDE8704000F0C3
:1008400087B80000000801402DE9F0410022CC7873
:1008500004F00F03E40601D58C7823430C784FF0A5
:100860000F0714F0FF0F4FF0010C1CD005680CFAB5
:1008700002F40E882640A64211D1960007FA06F827
:1008800025EA080503FA06F848EA0505CE78282E79
:1008900002D0482E02D002E0446100E00461521C04
:1008A000082AE4D305600A88FF2A1ED94568002279
:1008B00002F108060CFA06F40E882640A64210D172
:1008C000960007FA06F825EA080503FA06F848EA4A
:1008D0000505CE78282E00D14461CE78482E00D16F
:1008E0000461521C082AE3D34560BDE8F081000092
:1008F000F0B5154C002801DAE36900E06368C0F345
:100900000346420D120185B2C0F301579540032FF3
:1009100007D0C2020CD50322B240934343F0706269
:1009200009E023F07062636823F07063636002E0A3
:10093000AB4343F0706201B12A43002801DAE2615F
:10094000F0BD6260F0BD00000000014041617047F1
:100950000161704708B50121042000F01DFD4FF42E
:10096000E040ADF8000002208DF8020010208DF864
:10097000030069460148FFF767FF08BD0008014012
:10098000FEE7000070B50E4D4FF400742146284676
:10099000FFF7DEFF661031462846FFF7D9FF00F06B
:1009A00041F821462846FFF7D1FF00F03BF83146D9
:1009B0002846FFF7CBFFBDE8704000F033B80000D9
:1009C000000C014070B5094D4FF4007421462846D3
:1009D000FFF7BCFF61102846FFF7BAFF00F022F8CE
:1009E00021462846BDE87040FFF7B2BF000C014029
:1009F00070B50B4C4FF400712046FFF7A9FF00F0D3
:100A000011F8A51529462046FFF7A2FF00F00AF8C5
:100A100029462046FFF79AFFBDE8704000F002B873
:100A2000000C01400320401EC0B2FCD27047000001
:100A300070B5174B01248C40164E185C4FF480455E
:100A4000012A11D000F046F8E0B200F043F8294640
:100A50003046FFF77BFF012001F0B8FD2946304604
:100A6000BDE87040FFF774BF00F07F0000F032F87F
:100A7000E0B200F02FF829463046FFF767FF01206B
:100A800001F0A4FD29463046BDE87040FFF760BF85
:100A90001900002000080140F8B506460D46002464
:100AA000FFF7B8FE6A462946304601F0A3FD6E46C0
:100AB000AC4205D1305D01222146FFF7B9FF04E0C9
:100AC000305D00222146FFF7B3FF641CE4B2042C22
:100AD000EED3F8BD2DE9F04105460824104E4FF441
:100AE0008058A702280604D541463046FFF730FF5C
:100AF00003E041463046FFF729FF6806050E3946F8
:100B00003046FFF723FF012001F060FD39463046F3
:100B1000FFF71EFF641EE4B2002CE3D1BDE8F081B4
:100B2000000801402DE9F04399B06022134968465E
:100B3000FFF71CFB00246F464FF003084FF0180925
:100B400004EB440507EB85060121B06800F024FCA6
:100B5000B088ADF860008DF862808DF8639057F82A
:100B6000250018A9FFF770FE641C082CE8DB044977
:100B70000F20087019B0BDE8F0830000C0260008FF
:100B800018000020FEE72DE9F04184460F46164686
:100B90001C460CF561604FF4E155A84203D861464C
:100BA000002000F0A7F807F56161A94203D8394693
:100BB000012000F09FF806F56161A94203D8314693
:100BC000022000F097F804F56160A84205D821469C
:100BD000BDE8F041032000F08DB8BDE8F0810028A9
:100BE00003DD00F5C86000B2704703DAA0F5C86005
:100BF00000B270474FF0000070470000F0B587B0BA
:100C000004460D4601214FF4205000F0C5FB0121A0
:100C1000084600F0C1FB01213348FFF769FE334E5F
:100C2000304600F023FD324F384600F01FFDADF88E
:100C30000050641EADF804400024ADF80640ADF845
:100C400002406946304600F037FF6946384600F0FA
:100C500033FF03A800F026FF6025ADF80C500120FB
:100C6000ADF80E00ADF81440ADF8124003A93046BF
:100C700000F01AFE03A9304600F05AFE03A93046E0
:100C800000F09AFE03A9304600F0D8FE03A93846CA
:100C900000F00AFE03A9384600F0D0FEADF80C5073
:100CA000ADF80E400420ADF81000ADF81440ADF8DA
:100CB000124003A9384600F03BFE03A9384600F075
:100CC0007BFE0121304600F0C2FC0121384600F0D5
:100CD000BEFC0121304600F0AEFC0121384600F098
:100CE000AAFC07B0F0BD000040001600003401402F
:100CF000002C014010B504460846FFF770FF4FF482
:100D00006161884200DB08461F49884200DC0846D2
:100D1000002164B1012C17D0022C23D0032C05D163
:100D20001A4B1A1D00282ADB1880118010BD404282
:100D300000B2174B1A1D002802DB1880118010BD6D
:100D400019804042108010BD404200B2104B083361
:100D50001A1D002802DB1880118010BD1980404246
:100D6000108010BD094B094A0833121F002802DB0E
:100D70001880118010BD19804042108010BD19806C
:100D80004042108010BD0000F0F1FFFF382C014000
:100D9000343401407047000070B50F23C27801263B
:100DA0000178002A1ED0144A126802F4E062C2F5EB
:100DB000E062120AC2F10404D3404578A54082786B
:100DC0001A402A43120101F1E02181F80024007841
:100DD00000F01F018E404009800000F1E020C0F8C3
:100DE000006170BD01F01F0086404809800000F1DD
:100DF000E020C0F8806170BD0CED00E002490843BE
:100E000002490860704700000000FA050CED00E0A0
:100E100030B40021084B0022002003EBC0046254D0
:100E2000401CC0B28028F8D3491CC9B20829F3D3AA
:100E300030BC00F0E1B800004000002010B50446CE
:100E4000002C03D10021A62000F06BFA012C05D163
:100E50000021BDE81040A72000F063BA10BD10B516
:100E60000446002C07D10021C82000F05AFA0021C6
:100E7000A12000F056FA012C09D10021C02000F079
:100E800050FA0021BDE81040A02000F04ABA10BD81
:100E900030B5CB0801F007040125A540ECB2074DA1
:100EA00005EBC005C808002A285C02D02043E8549E
:100EB00030BDC0432043C043E85430BD4000002053
:100EC00038B501213C2000F067FA4FF44074ADF8CA
:100ED000004014208DF8030003208DF80200414DDE
:100EE00069462846FFF7B0FC21462846FFF730FD4B
:100EF0000021AE2000F015FA0021084600F011FA9A
:100F00000021102000F00DFA0021402000F009FA25
:100F10000021812000F005FA0021CF2000F001FA25
:100F20000021A12000F0FDF90021C82000F0F9F90E
:100F30000021A62000F0F5F90021A82000F0F1F929
:100F400000213F2000F0EDF90021D32000F0E9F965
:100F50000021084600F0E5F90021D52000F0E1F974
:100F60000021802000F0DDF90021D92000F0D9F91E
:100F70000021F12000F0D5F90021DA2000F0D1F9AC
:100F80000021122000F0CDF90021DB2000F0C9F98A
:100F90000021402000F0C5F90021202000F0C1F917
:100FA0000021022000F0BDF900218D2000F0B9F9E8
:100FB0000021142000F0B5F90021A42000F0B1F9BF
:100FC0000021A62000F0ADF9FFF722FF0021AF209D
:100FD00000F0A7F90020FFF731FF0020FFF73FFFE7
:100FE00038BD0000000C01400346012000E05843DA
:100FF000491EC9B2FBD2704770B50025164E05F1E7
:10100000B000C0B2002100F08CF90021084600F0C9
:1010100088F90021102000F084F9FFF7B3FC782054
:1010200000F0D8F9FFF7E4FC402000F0D3F9FFF717
:10103000DFFC002406EBC400405D00F0CBF9FFF7B5
:10104000D7FC641CE4B2802CF4D3FFF7BBFC6D1C0E
:10105000EDB2082DD3D370BD400000202DE9FC4F28
:10106000814688461D46CDF80090C346082D03D022
:10107000680704D0012003E00620019006E000206C
:1010800000EBD50069084843C0B20190203A02F055
:10109000FF0A00264EE0082D14D00C2D19D0102D7B
:1010A0001ED0182D49D127490AEBCA0001EB800058
:1010B000845D0027E00718D0414648460B9AFFF7A9
:1010C000E7FE19E020490AEB4A0001EB4000845D8D
:1010D000EFE71E490AEB4A0001EB8000845DE8E778
:1010E0001B4800EB0A10845DE3E70B9838B300223D
:1010F00041464846FFF7CCFE640808F1010808F0B5
:10110000FF087F1CFFB2082FD4D309F1010909F0B1
:10111000FF09082D0BD00098A9EB0000B0EB550F8C
:1011200005D1DDF800900BF1080B0BF0FF0BD84652
:10113000761CF6B201988642ADD3BDE8FC8F012241
:10114000D6E70000AC330008202700084829000833
:10115000BC2D00082DE9FC4F8146884692461E466C
:10116000CDF80490C346700701D0012000E00020B4
:1011700000EBD60070430090002549E0102E12D0FD
:10118000182E15D0202E1BD0402E44D1244800EB21
:101190004A20445D0027E00718D0414648460B9A94
:1011A000FFF776FE19E01F4800EB4A10445DF1E7B7
:1011B0001B490AEBCA00C83901EBC000445DE9E7EE
:1011C0001748803800EBCA10445DE3E70B9820B362
:1011D000002241464846FFF75BFE640808F101081B
:1011E00008F0FF087F1CFFB2082FD4D309F10109D2
:1011F00009F0FF090198A9EB0000B04205D1DDF824
:1012000004900BF1080B0BF0FF0BD8466D1CADB230
:1012100000988542B2D3BDE8FC8F0122D9E70000D7
:1012200030430008084100082DE9FC41089F0446AE
:101230000D461E460AA0006801901046FFF78FF980
:1012400002460B4607A101A800F034FD334601AA6F
:1012500029462046009700F046F8BDE8FC810000D2
:1012600020000000252E3366000000002DE9F84F15
:101270000746DDE90A698B46924698460025082E06
:1012800000D1022500241DE0A8EB0400401EC1B2DD
:101290000A20FFF7A9FEBAFBF0F00A21B0FBF1F239
:1012A00001FB120090B13030C2B205EB560000FBDA
:1012B0000470C0B233465946CDF80090FFF7CEFE19
:1012C000641CE4B24445DFD3BDE8F88F05EB56005B
:1012D00000FB0470C0B2334630225946CDF800906E
:1012E000FFF7BCFEECE72DE9F841044688461546B9
:1012F0001E46079F0BE03346414620460097FFF706
:10130000ADFE082E0AD004EB5600C4B26D1C2A783C
:10131000A2F120005E28EED9BDE8F881A41DE4B258
:10132000F4E770B505460C46FFF72CFB782000F07B
:1013300051F8FFF75DFB1CB1402000F04BF802E0D4
:10134000002000F047F8FFF753FB284600F042F872
:10135000FFF74EFBBDE87040FFF734BB704700005D
:10136000054A002903D0D1690143D1617047D16991
:101370008143D1617047000000100240054A0029F6
:1013800003D01169014311617047116981431161F3
:101390007047000000100240054A002903D09169FF
:1013A00001439161704791698143916170470000E9
:1013B00000100240054A002903D0D1680143D160E2
:1013C0007047D1688143D16070470000001002402F
:1013D000704700002DE9F04105460024114E4FF4FE
:1013E0000078B715280604D541463046FFF7B0FA15
:1013F00003E041463046FFF7A9FAFFF713FB3946F1
:101400003046FFF7A5FAFFF70DFB39463046FFF7E8
:101410009DFA6806050E641CE4B2082CE2D3BDE810
:10142000F0810000000C0140AFF300800CB50022F9
:10143000019200922748016841F4803101604FF425
:10144000A063016801F4003100910199491C0191E8
:10145000009911B901999942F3D10168890302D524
:101460000121009100E000920099012930D11A4930
:101470000A6842F010020A600A6822F003020A6059
:101480000A6842F002020A604168416041684160B6
:10149000416841F480614160416821F47C11416000
:1014A000416841F4E8114160016841F080710160D8
:1014B00001688901FCD5416821F003014160416860
:1014C00041F0020141604168C1F381010229FAD172
:1014D0000CBD000000100240002002404FF0E0214F
:1014E000042804D0086920F00400086170470869E6
:1014F00040F00400086170477047000010B50F48C5
:10150000016841F00101016041680D4A11404160EC
:1015100001680C4A11400160016821F480210160DA
:10152000416821F4FE0141604FF41F018160FFF723
:101530007BFF05494FF00060086010BD00100240BD
:101540000000FFF8FFFFF6FE08ED00E070B52B4C41
:101550000121204600F092F900284DD001212046BB
:1015600000F066F8264CE168491CE16020680A2515
:1015700000EB400202EBC00000F5FA7090FBF5F0C2
:10158000204E884204DB80213046FFF7E1F903E07A
:1015900080213046FFF7DAF9616801EB410000EB8A
:1015A000C10000F5FA7090FBF5F0E168884204DBB9
:1015B00040213046FFF7CCF903E040213046FFF7E9
:1015C000C5F9A16801EB410000EBC10000F5FA701C
:1015D00090FBF5F0E168884204DB40213046FFF7DC
:1015E000B7F903E040213046FFF7B0F9E068B0F505
:1015F000FA6F01D10020E06070BD0000002C0140B6
:101600002C000020000C014010B501218C07204661
:1016100000F034F9002807D00121204600F008F836
:1016200002480168491C016010BD00003C00002018
:10163000C94301827047002904D0018841F00101AB
:1016400001807047018821F0010101807047002965
:1016500005D030F8441F41F400410180704730F854
:10166000441FC1F30E0101807047000010B573499B
:1016700088420AD1C41401212046FFF79BFE204670
:10168000BDE810400021FFF795BEB0F1804F0CD0AF
:101690006B49884213D101210220FFF76FFE002120
:1016A000BDE810400220FFF769BE01210846FFF7A0
:1016B00065FE0021BDE810400120FFF75FBE6149D3
:1016C000884209D101210420FFF758FE0021BDE81E
:1016D00010400420FFF752BE5B49884209D1012126
:1016E0000820FFF74BFE0021BDE810400820FFF75F
:1016F00045BE5649884209D101211020FFF73EFE20
:101700000021BDE810401020FFF738BE5049884244
:1017100009D101212020FFF731FE0021BDE8104052
:101720002020FFF72BBE4B4988420AD144140121E7
:101730002046FFF73FFE2046BDE810400021FFF79E
:1017400039BE454988420AD10121CC042046FFF721
:1017500031FE2046BDE810400021FFF72BBE3F4977
:1017600088420AD101210C052046FFF723FE2046BE
:10177000BDE810400021FFF71DBE394988420AD15B
:1017800001214C052046FFF715FE2046BDE810401C
:101790000021FFF70FBE3349884209D101214020C3
:1017A000FFF7ECFD0021BDE810404020FFF7E6BD4B
:1017B0002D49884209D101218020FFF7DFFD00215A
:1017C000BDE810408020FFF7D9BD284988420AD1E2
:1017D000841501212046FFF7D1FD2046BDE81040C9
:1017E0000021FFF7CBBD224988420AD101210C0418
:1017F0002046FFF7DFFD2046BDE810400021FFF73F
:10180000D9BD1C4988420AD101214C042046FFF76A
:10181000D1FD2046BDE810400021FFF7CBBD1649A1
:1018200088420AD101218C042046FFF7C3FD2046DF
:10183000BDE810400021FFF7BDBD10BD002C0140E8
:101840000004004000080040000C00400010004070
:101850000014004000340140004C014000500140A1
:101860000054014000180040001C004000200040CF
:101870000040014000440140004801400246002071
:10188000138A0B4092890A40002B02D0002A00D014
:1018900001207047002A03D082890A438281704761
:1018A00082898A438281704730B5028C22F001021E
:1018B0000284028C8388048B24F0700424F00305D6
:1018C0000C882C4322F002020D8915434A882A43D2
:1018D000124DA8420BD0124DA84208D0114DA8427B
:1018E00005D0114DA84202D0104DA8420FD122F0D0
:1018F00008054A892A4322F004058A882A4323F4EA
:10190000807323F400738D891D43CB892B4383801F
:101910000483C9888186028430BD0000002C014008
:1019200000340140004001400044014000480140B3
:1019300070B5028C22F010020284028C8388048B22
:1019400024F4E04424F440760D884FF6FF7404EA52
:101950000525354322F020020E8904EA06161643B7
:101960004A8804EA02123243114EB04202D0114EAC
:10197000B04217D122F080024E8904EA06161643BF
:1019800026F040068A8804EA0212324323F4806378
:1019900023F400638E8904EA86061E43CB8904EA99
:1019A0008303334383800583C9880187028470BD24
:1019B000002C01400034014070B5028C22F480728A
:1019C0000284028C8388848B24F0700424F0030446
:1019D0000D88254322F400720E894FF6FF7404EA45
:1019E000062616434A8804EA02223243114EB042C8
:1019F00002D0114EB04217D122F400664A8904EA9F
:101A00000222324322F480668A8804EA02223243A8
:101A100023F4805323F400538E8904EA06161E43F0
:101A2000CB8904EA0313334383808583C988818784
:101A3000028470BD002C01400034014070B5028C5E
:101A400022F480520284058C8288838B23F4E04345
:101A500023F440760C884FF6FF7303EA04243443E2
:101A600025F400550E8903EA06362E434D8803EA15
:101A700005353543094EB04202D0094EB04205D17A
:101A800022F480468A8903EA821232438280848368
:101A9000C988A0F84010058470BD0000002C0140EA
:101AA000003401400021018041808180C18001819A
:101AB00041818181C181704730B502881B4C1C4D2A
:101AC000A0420DD0A8420BD0B0F1804F08D0194BE6
:101AD000984205D0184B984202D0184B984203D137
:101AE00022F070034A881A43154B984206D0154BD2
:101AF000984203D022F44073CA881A4302808A882D
:101B000082850A880285A0420AD0A84208D00E4ADF
:101B1000904205D00D4A904202D00D4A904201D128
:101B2000097A01860121818230BD0000002C01402C
:101B3000003401400004004000080040000C004058
:101B400000100040001400400040014000440140EB
:101B50000048014010B5084C40F22551204600F0E5
:101B600026F8002807D0204600F041F8C0B2BDE8B2
:101B7000104000F003B810BD0038014070B50546B4
:101B8000064C8021204600F00BF80028F9D02946A9
:101B90002046BDE8704000F02EB80000003801403B
:101BA0000246002012880A4200D00120704770B51A
:101BB000002440F66A12C1F3421301F01F0501260A
:101BC00006FA05F2012B0CD0022B0DD0838A1340AC
:101BD000090A8E40008830400BB100B10124204634
:101BE00070BD83891340F3E7038A1340F0E78088D0
:101BF000C0F308007047C1F30801818070470000FE
:101C000038B58020ADF8000010208DF803000324C3
:101C10008DF802400A4D69462846FEF715FE01215F
:101C20000420FFF7B9FB4021ADF8001004218DF826
:101C300003108DF8024069462846FEF705FE38BDC0
:101C4000000801401FB501210846FFF789FB4FF04E
:101C500080442046FFF70AFD40F2E731ADF8081056
:101C60004721ADF804100021ADF80A10ADF80610B8
:101C700001A92046FFF720FF012211462046FFF769
:101C800009FE4FF4A060FFF7B9F802218DF80110AA
:101C90008DF802101C218DF8001001208DF8030032
:101CA0006846FFF779F800212046FFF7C4FC1FBD06
:101CB000FEE700000FB4084B10B504A902AA039870
:101CC00000F0DEF8044602A9002000F05CFC20468B
:101CD00010BC5DF814FB00008725000802E008C86E
:101CE000121F08C1002AFAD170477047002001E096
:101CF00001C1121F002AFBD1704700002DE9FF5FD0
:101D000082B00021DDE90430020DDDF840B003436C
:101D100018D044F61050A2F2FF3242431514119825
:101D200001281FD0A5EB0B00401C5FEA000A4FF012
:101D300000064E4FDFF83891B046504615D5CAF12F
:101D4000000413E0119801244AA3012801D16FEA8D
:101D50000B010298119AC0E90031C0E9024206B0B5
:101D6000BDE8F09FCBF10000DFE704460021404AC8
:101D7000491842EB0450CDE9001012E0E00707D00B
:101D800032463B4640464946FEF7DBFA80468946E6
:101D900032463B4610461946FEF7D3FA06460F4632
:101DA0006410002CEAD1DDE90401DDE90023BAF179
:101DB000000F06DAFEF7C5FA42464B46FEF7C1FAB7
:101DC00005E0FEF730FB42464B46FEF72CFB04468F
:101DD0000E460022284BFEF7D5FB03D84FF0FF300C
:101DE000014607E00022254B20463146FEF702FA65
:101DF000FEF7B5FC102409E0002C0ADB0A220023C0
:101E0000FEF7EEFB039B30321A55641E50EA0102C6
:101E1000F2D1641C039AC4F111031444119A012AEB
:101E200003D0012208430DD10AE0084304D000206A
:101E30004FF0110B119072E7A3EB0B056D1E0DE037
:101E40005B4504DD4FF0000205F1010504E003DA13
:101E50004FF00002A5F10105002AECD0029811997B
:101E6000C0E90231C0E9004579E7000000001440F4
:101E70000000F03F300000000000F0430000E03FB1
:101E80002DE9FF4F95B09A46884606460025EEE1BB
:101E9000252877D100242746F94A0121039400E040
:101EA000044316F8013F203B01FA03F01042F7D13A
:101EB00030782A2811D06FF02F033078A0F130024B
:101EC000092A16D8039A44F0020402EB820203EBBB
:101ED00042021044761C0390EFE758F8042B03925B
:101EE000002A03DA504244F40054039044F0020400
:101EF000761C30782E2816D116F8010F44F0040411
:101F00002A280DD06FF02F023078A0F13003092B72
:101F100009D807EB870302EB4303C718761CF3E7E6
:101F200058F8047B761C30786C280FD006DC4C28DF
:101F300017D068280DD06A2814D104E0742810D076
:101F40007A280FD10DE044F400140AE044F4801420
:101F500001E044F440147278824202D104F5801406
:101F6000761C761C307866280BD013DC582877D086
:101F700009DC002875D04528F6D04628F4D047283B
:101F80001AD193E118E0632835D0642879D0652808
:101F900012D18BE1702873D008DC6728F1D0692852
:101FA0006FD06E280DD06F2806D1ACE073282CD0EE
:101FB000752874D0782853D05246179990476D1CD5
:101FC00054E1C4F30250022809D003280DD0D8F8F8
:101FD000001004280DD00D6008F1040846E1D8F87F
:101FE0000010EA17C1E90052F6E7D8F800100D809A
:101FF000F2E70D70F0E718F8041B8DF800100020D0
:102000008DF80100EB46012003E058F804BB4FF0C7
:10201000FF3061074FF0000102D40DE009F101012A
:102020008946B9420FDA8145F8DB1BF8091000290F
:10203000F4D108E009F1010189468142FADB1BF87D
:1020400009100029F6D103985346A0EB0907214651
:102050003846179A00F080FA284400EB090507E09B
:1020600044E008E10DE01BF8010B52461799904738
:10207000B9F10109F7D2534621463846179AF2E0E2
:1020800039E00A21C4F302524FF0000B0091022AFA
:1020900006D058F8040BC117032A09D00AE023E040
:1020A00008F1070020F00702F2E80201904605E07F
:1020B00000B2C117042A01D140B2C117002906DAC3
:1020C0000A460021404261EB02012D2202E0220576
:1020D00004D52B228DF80420012203E0E20701D071
:1020E0002022F7E7914657E00A2100E010214FF047
:1020F000000B00910BE010214FF0000B44F00404A2
:102100000827009103E008204FF0000B0090C4F373
:102110000252022A05D058F8040B0021032A08D0E5
:1021200008E008F1070020F00702F2E802019046FB
:1021300003E080B2042A00D1C0B24FF000092207A8
:102140002AD53278702A07D0DDF800C08CF0100C48
:102150005CEA0B0C05D00EE040228DF80420012231
:1021600008E050EA010306D030238DF804308DF8E2
:10217000052002229146009B83F0080353EA0B03DB
:102180000AD150EA010201D1620705D530228DF84B
:1021900004204FF001097F1E3278582A04D039A25A
:1021A0000C920CAA02920BE03BA2F9E75B46009A64
:1021B000FEF716FA0C9B9B5C029A521E0292137059
:1021C00050EA0102F2D1029804A9081A00F1200B8A
:1021D000600702D524F4803400E001275F4502DD6A
:1021E000A7EB0B0000E0002000EB0B010090039830
:1021F0004944401A0390E00306D453462146179AF7
:10220000039800F0A9F90544002706E001A852460A
:10221000C05D179990476D1C7F1C4F45F6DBE003AE
:102220000CD553462146179A039800F095F90544BA
:1022300004E030205246179990476D1C0099481EC3
:1022400000900029F5DC08E00298029952460078D7
:10225000491C0291179990476D1CBBF10001ABF12D
:10226000010BF1DC5BE100F065F90544761C307888
:1022700000287FF40DAE19B02846BDE8F08F0000AD
:10228000092801003031323334353637383961624C
:102290006364656600000000303132333435363710
:1022A000383941424344454600000000600700D4ED
:1022B000062708F1070020F00700F0E80223804617
:1022C00003F0004C5FEA0C0001D097A009E0200564
:1022D00001D596A005E0E00701D095A001E0AFF29E
:1022E0004C001390307823F0004365280CD006DCB6
:1022F000452809D046281DD047287FD13BE06628D5
:1023000018D067287AD136E00021112F01DB112087
:1023100000E0781CCDE9000104A90CA8FFF7EEFC51
:10232000DDE90D010C9A4FF0000B07F10109109245
:1023300000914EE04FF000400097CDE9011004A954
:102340000CA8FFF7DBFCDDE90D020C9B0F994FF0A9
:10235000000B91461093009211B9791C00EB010912
:10236000B7EB090003D4C0F1FF3B07F10109A9EB6A
:102370000700019042E0012F00DA01270021112F10
:1023800001DD112000E03846CDE9000104A90CA8C8
:10239000FFF7B4FCDDE90D010C9A00914FF0000B42
:1023A000B946109221070FD4009A4A4503DA9146A4
:1023B00001E0A9F10109B9F1010F05DD109AA9F1B8
:1023C0000101515C3029F4D0B84202DA10F1040F57
:1023D00003DA0121CDE9011010E0002803DC834479
:1023E000A9EB000102E0411C494500DD8946A0EB54
:1023F0000B00401C01904FF000400290200705D4D4
:102400000198484502DB4FF0FF30019000208DF825
:102410004B0002980DF14B07B0F1004F25D0022080
:102420000C902B200D90029800280CDA404202906C
:102430002D200D9007E00A210298FEF7BBF83031FD
:10244000029007F8011D0C99481E0C900029F2DC3F
:1024500002980028EFD1791E0D980870307800F0AE
:10246000200040F0450007F8020D11A8C01BC01D58
:1024700002901398007800B1012000EB0901019847
:1024800001EBE071029801440398401A401E03904A
:10249000E00306D453462146179A039800F05CF8EF
:1024A00005441398007818B15246179990476D1C4F
:1024B000E00323D553462146179A039800F04CF8C1
:1024C00005441BE0BBF1000F07DB0098584504DD15
:1024D0001098179910F80B0001E017993020524618
:1024E000904701980BF1010B401E05F10105019089
:1024F00004D12E205246179990476D1CB9F1000166
:10250000A9F10109DEDC05E017F8010B5246179925
:1025100090476D1C0299481E02900029F4DC534636
:102520002146179A03989EE62D0000002B0000001C
:10253000200000002DE9F041044600251E46174604
:10254000880404D405E039462020B0476D1C641E81
:10255000F9D52846BDE8F0812DE9F0410446002573
:102560001E469046C80301D5302700E02027880486
:1025700004D505E041463846B0476D1C641EF9D5C8
:102580002846BDE8F0810A68531C0B601070704744
:1025900010B50B480B490068B0FBF1F0C4B26FF006
:1025A0000400FEF79BFF0849E008087000EB4002BA
:1025B000C2EBC0104FF6FF7202EAC000488010BDA7
:1025C0000000002040420F00140000200849097854
:1025D00048434FF0E021486100238B6101200861EE
:1025E0000869C20701D0C003FAD50B618B6170473F
:1025F0001400002070B50C461546042C01D90020AB
:1026000070BD154E04E03146FDF7C2FD641EE4B214
:10261000002CF8D1FDF776FF0A2190FBF1F201FBC7
:1026200012022A7090FBF1F292FBF1F301FB1322EC
:102630006A70642290FBF2F292FBF1F301FB132229
:10264000AA704FF47A7290FBF2F090FBF1F201FB6A
:102650001200E870012070BD000020411CB5FEF79B
:10266000A9F840F2DC56DFF85480012408253846EA
:10267000FDF761FF81463046034602460146FEF7FC
:1026800082FA00214046FEF707FA1023002219467D
:1026900010460094FEF75EFD08233A460221002012
:1026A0000094FEF7C1FDCDE900544A4605231421EC
:1026B0000020FEF7DBFDFEF79FFCDCE70000C842D0
:1026C000000801400008000004000000000C014068
:1026D0000100000008000000001001404000000060
:1026E0001000000000100140000100001000000078
:1026F000000801400001000004000000000C01403F
:1027000002000000080000000010014080000000EE
:102710001000000000100140000200001000000046
:102720000000000000000000002F00000000070073
:10273000070000147F147F1400242A7F2A120062ED
:102740006408132300364955225000000503000099
:1027500000001C224100000041221C000014083E21
:1027600008140008083E0808000000A060000008E7
:10277000080808080000606000000020100804023B
:10278000003E5149453E0000427F400000426151F9
:102790004946002141454B31001814127F10002793
:1027A00045454539003C4A49493000017109050356
:1027B00000364949493600064949291E0000363687
:1027C00000000000563600000008142241000014EA
:1027D00014141414000041221408000201510906C7
:1027E00000324959513E007C1211127C007F494948
:1027F0004936003E41414122007F4141221C007F79
:1028000049494941007F09090901003E4149497A86
:10281000007F0808087F0000417F41000020404100
:102820003F01007F08142241007F40404040007F6C
:10283000020C027F007F0408107F003E4141413EB0
:10284000007F09090906003E4151215E007F0919F8
:1028500029460046494949310001017F0101003FF5
:102860004040403F001F2040201F003F4038403F75
:1028700000631408146300070870080700615149D9
:10288000454300007F41410000552A552A5500006C
:1028900041417F00000402010204004040404040EA
:1028A000000001020400002054545478007F484482
:1028B000443800384444442000384444487F0038B9
:1028C0005454541800087E0901020018A4A4A47CE2
:1028D000007F080404780000447D400000408084AC
:1028E0007D00007F102844000000417F4000007CF4
:1028F00004180478007C0804047800384444443800
:1029000000FC242424180018242418FC007C08044B
:10291000040800485454542000043F444020003C24
:102920004040207C001C2040201C003C4030403CAB
:10293000004428102844001CA0A0A07C004464543B
:102940004C4414141414141400000000000000007F
:10295000000000000000FC00000000000200000079
:10296000000C020C020000000000000090D0BCD05F
:10297000BC900003000300001824FE448C000302F6
:10298000070201001824D8B04C80000300010201A6
:10299000C038E438E000010202010202080600002B
:1029A0000000000000000000000000F80402000029
:1029B00000010204000204F800000004020100000B
:1029C0009060F86090000000010000002020FC20D2
:1029D00020000000010000000000000000000806C8
:1029E0000000000020202020200000000000000047
:1029F0000000000000000002000000000080601CD9
:102A00000200040300000000F8040404F8000102BE
:102A1000020201000008FC000000000203020000A6
:102A2000188444241800030202020200080424242B
:102A3000D80001020202010040B088FC80000000C2
:102A4000000302003C242424C4000102020201000D
:102A5000F824242CC0000102020201000C04E41C32
:102A60000400000003000000D8242424D800010240
:102A70000202010038444444F8000003020201004D
:102A80000000100000000000020000000000200014
:102A90000000000006000000002050880402000032
:102AA0000000010290909090900000000000000053
:102AB0000002048850200002010000001804C42411
:102AC0001800000002000000F804E494F80001027D
:102AD0000202020000E09CF08000020300000302FA
:102AE00004FC2424D800020302020100F8040404B8
:102AF0000C0001020202010004FC0404F8000203BD
:102B00000202010004FC24740C0002030202030010
:102B100004FC24740C00020302000000F0080444CA
:102B2000CC4000010202010004FC2020FC0402034E
:102B3000000003020404FC04040002020302020079
:102B4000000404FC040406040403000004FC24D074
:102B50000C0402030200030204FC04000000020350
:102B600002020203FC3CC03CFC0003000300030023
:102B700004FC30C4FC04020302000300F804040453
:102B8000F80001020202010004FC242418000203E0
:102B900002000000F8848404F80001020207050026
:102BA00004FC246498000203020003021824244455
:102BB0008C000302020201000C04FC040C00000261
:102BC0000302000004FC0000FC04000102020100FA
:102BD000047C80E01C040000030000001CE03CE0DA
:102BE0001C00000300030000049C609C040002031E
:102BF00000030200041CE01C0400000203020000A9
:102C00000C84641C04000203020203000000FE02A4
:102C10000200000007040400000E30C000000000A5
:102C200000010200000202FE000000040407000090
:102C3000000402040000000000000000000000008A
:102C40000000080808080808000002000000000052
:102C5000000000000040A0A0C0000001020203022A
:102C600004FC2020C00000030202010000C020205C
:102C7000600000010202020000C02024FC000001EC
:102C80000202030200C0A0A0C00000010202020074
:102C90000020F82424040002030202000040A0A047
:102CA000602000070A0A0A0404FC2020C000020376
:102CB000020003020020E400000000020302000002
:102CC000000020E4000008080807000004FC80E081
:102CD00020200203020003020404FC0000000202A0
:102CE00003020200E020E020C00003000300030014
:102CF00020E02020C00002030200030200C02020C8
:102D0000C00000010202010020E02020C000080FE6
:102D10000A02010000C02020E0000001020A0F08A2
:102D200020E0402020000203020000000060A0A07C
:102D300020000002020203000020F8200000000032
:102D40000102020020E00020E00000010202030274
:102D500020E0208060200000030100006080E0800F
:102D60006000000300030000206080602000020378
:102D70000003020020E02080602008080701000016
:102D80000020A0602000000203020200000020DEFC
:102D90000200000000070400000000FF0000000027
:102DA000000F00000002DE20000000040700000009
:102DB0000201020404020000000000000000000004
:102DC000000000000000000000000000000000F80B
:102DD00000000000000000333000000000100C066E
:102DE000100C0600000000000000000040C0784009
:102DF000C0784000043F04043F040400007088FCD5
:102E000008300000001820FF211E0000F008F0002C
:102E1000E018000000211C031E211E0000F008889D
:102E2000700000001E2123241927211010160E0007
:102E3000000000000000000000000000000000E0B2
:102E400018040200000000071820400000020418C7
:102E5000E00000000040201807000000404080F023
:102E6000804040000202010F01020200000000F059
:102E7000000000000101011F01010100000000002D
:102E80000000000080B070000000000000000000A2
:102E9000000000000001010101010101000000002B
:102EA00000000000003030000000000000000000C2
:102EB00080601804006018060100000000E010089F
:102EC0000810E000000F102020100F00001010F874
:102ED000000000000020203F2020000000700808B3
:102EE0000888700000302824222130000030088833
:102EF000884830000018202020110E000000C0205B
:102F000010F8000000070424243F240000F808887B
:102F1000880808000019212020110E0000E0108808
:102F200088180000000F112020110E00003808083A
:102F3000C83808000000003F00000000007088084A
:102F400008887000001C222121221C0000E01008CB
:102F50000810E0000000312222110F00000000C024
:102F6000C0000000000000303000000000000080C1
:102F700000000000000080600000000000008040B1
:102F800020100800000102040810200040404040CA
:102F9000404040000404040404040400000810201D
:102FA0004080000000201008040201000070480862
:102FB0000808F0000000003036010000C030C828CA
:102FC000E810E0000718272423140B000000C03885
:102FD000E0000000203C23020227382008F88888FF
:102FE00088700000203F202020110E00C03008080B
:102FF00008083800071820202010080008F80808E2
:103000000810E000203F202020100F0008F88888DA
:10301000E8081000203F20202320180008F88888A6
:10302000E8081000203F200003000000C03008081E
:103030000838000007182020221E020008F80800A7
:103040000008F808203F210101213F20000808F86E
:10305000080800000020203F202000000000080891
:10306000F8080800C08080807F00000008F888C051
:1030700028180800203F20012638200008F8080002
:1030800000000000203F20202020300008F8F80039
:10309000F8F80800203F003F003F200008F830C04B
:1030A0000008F808203F200007183F00E01008083B
:1030B0000810E0000F10202020100F0008F808086A
:1030C0000808F000203F210101010000E01008087D
:1030D0000810E0000F18242438504F0008F88888A2
:1030E00088887000203F2000030C30200070880882
:1030F000080838000038202121221C00180808F890
:10310000080818000000203F2000000008F8080010
:103110000008F808001F202020201F0008788800E1
:1031200000C83808000007380E010000F80800F851
:103130000008F800033C0700073C030008186880FB
:103140008068180820302C03032C30200838C80071
:10315000C83808000000203F2000000010080808C0
:10316000C83808002038262120201800000000FE62
:10317000020202000000007F40404000000C30C00E
:1031800000000000000000010638C000000202023A
:10319000FE000000004040407F00000000000402EC
:1031A0000202040000000000000000000000000017
:1031B0000000000080808080808080800002020407
:1031C00000000000000000000000000000008080FF
:1031D000808000000019242222223F2008F800806D
:1031E00080000000003F112020110E000000008030
:1031F00080800000000E11202020110000000080BF
:103200008088F800000E112020103F2000008080F0
:1032100080800000001F222222221300008080F004
:10322000888888180020203F20200000000080802F
:1032300080808000006B94949493600008F8008074
:1032400080800000203F210000203F2000809898CF
:10325000000000000020203F20200000000000802F
:103260009898000000C08080807F000008F800006F
:1032700080808000203F24022D302000000808F8C4
:10328000000000000020203F20200000808080807F
:1032900080808000203F20003F20003F8080008011
:1032A00080800000203F210000203F20000080801F
:1032B00080800000001F202020201F0080800080D0
:1032C0008000000080FFA12020110E00000000807F
:1032D00080808000000E112020A0FF808080800070
:1032E0008080800020203F2120000100000080809D
:1032F000808080000033242424241900008080E092
:10330000808000000000001F20200000808000005E
:1033100000808000001F202020103F20808080003F
:103320000080808000010E3008060100808000804F
:10333000008080800F300C030C300F000080800074
:10334000808080000020312E0E312000808080009F
:103350000080808080818E7018060100008080804F
:10336000808080000021302C2221300000000000ED
:10337000807C020200000000003F4040000000008E
:10338000FF00000000000000FF0000000002027CBF
:10339000800000000040403F0000000000060101E6
:1033A0000202040400000000000000000000000011
:1033B000000000000000000000000000000000000D
:1033C00000000000000000000000000000000000FD
:1033D0000000000000F0F0F000000000000000001D
:1033E00000017F010000000000000000001C1C1C08
:1033F0000000000000008060301C8C60301C0C005D
:1034000000000000000000000000000000000000BC
:103410000000000000000000000000E000000000CC
:1034200000E000000086E69F86868686E69F86008E
:1034300000011F01010101011F010100000080C006
:103440006020F820E0C00000000003070C18FF70A7
:10345000E18100000000070F10107F100F0700002F
:103460008060206080000000E02000000F302030ED
:103470009F70DC371030C0000000100E03000718EA
:10348000101807000000C02020E0C000000000006D
:1034900080E01F38E88703C43C040000070F1810C1
:1034A000100B070D1010080000808C4C3800000035
:1034B000000000000000000000000000000000000C
:1034C00000000000000000000000000000000000FC
:1034D000000080E0300804000000000000FEFF0152
:1034E00000000000000000000000030F1820400052
:1034F00000040830E0800000000000000000000030
:1035000001FFFE0000000000004020180F03000033
:1035100000000000000000000000C00000000000EB
:10352000004266663C18FF183C66664200000000D8
:103530000000030000000000000000000000800008
:1035400000000000001010101010FF1010101010DC
:103550000000000000000300000000000000000068
:10356000000000000000000000000000000000005B
:103570000000000000808C4C3800000000000000BB
:10358000000000000000000000000000001010100B
:1035900010101010101010000000000000000000BB
:1035A000000000000000000000000000000000001B
:1035B00000000000000000000000000000001C1CD3
:1035C0001C000000000000000000000000000000DF
:1035D000E0380C000000000080701C0300000000B8
:1035E0000060380E0100000000000000000080C0F4
:1035F00060202060C080000000FEFF01000000008D
:1036000001FFFE000001070E181010180E07010040
:103610000000808080C0E00000000000000000008A
:1036200000FFFF000000000000001010101F1F101E
:10363000101000000080402020202060C08000008A
:1036400000030300804020381F070000001C1A19E7
:1036500018181818181F00000080C020202060C013
:1036600080000000000303001010182FE780000006
:1036700000070F10101010180F07000000000000C6
:103680000000C0E0F000000000C0B088868180FF2C
:10369000FF808000000000000010101F1F101000AD
:1036A0000000E060606060606060000000003F104B
:1036B00008080818F0E0000000070B101010101C9C
:1036C0000F030000000080C040202020E0C0000068
:1036D00000FCFF211008080818F0E0000001070CAA
:1036E00018101010080F03000000C0E06060606058
:1036F00060E06000000003000000E0180700000028
:1037000000000000001F1F00000000000080C060DB
:103710002020202060C080000087EF2C1818303057
:1037200068CF830000070F0810101010180F070053
:103730000000C0C020202020C0800000001F3F608B
:103740004040402010FFFE0000000C1C101010082C
:103750000F03000000000000000000000000000057
:1037600000000000000E0E0E00000000000000002F
:10377000001C1C1C000000000000000000000000F5
:103780000000000000000000000C0C000000000021
:103790000000000000583800000000000000000099
:1037A000000000804020100000001028448201002A
:1037B00000000000000000000000010204081000EA
:1037C000000000000000000000000000008484846D
:1037D000848484848484840000000000000000004D
:1037E00000000000000010204080000000000000E9
:1037F00000000000000001824428100000001008B2
:10380000040201000000000000C020201010101071
:1038100030E0C0000003030000F010080C070300B4
:10382000000000001C1C1C0000000000000000C084
:10383000406020202040C00000FCFF01F00E03C1CA
:10384000FE03807F0001070E081111101109040208
:103850000000000080E0E000000000000000807C2C
:103860004340477FF880000010181F100000000040
:10387000131F1C1020E0E02020202060C0800000EA
:1038800000FFFF10101010182FE78000101F1F10EE
:1038900010101010180F0700000080C040202020DA
:1038A0002060E00000FCFF010000000000000100BB
:1038B0000001070E181010100804030020E0E0209B
:1038C00020202040C080000000FFFF00000000001A
:1038D00001FFFE00101F1F10101018080E07010036
:1038E00020E0E020202020202060800000FFFF104A
:1038F0001010107C00000000101F1F10101010107E
:103900001018060020E0E0202020202060608000C9
:1039100000FFFF101010107C00000100101F1F108E
:103920000000000000000000000080C06020202097
:1039300040E0000000FCFF0100004040C0C14040EA
:103940000001070E181010100F0F000020E0E020FB
:103950000000000020E0E02000FFFF101010101019
:1039600010FFFF00101F1F1000000000101F1F108D
:103970000000202020E0E0202020000000000000C7
:1039800000FFFF000000000000001010101F1F10BB
:103990001010000000000000202020E0E020202087
:1039A00000000000000000FFFF0000000060E08059
:1039B0008080C07F3F00000020E0E020000020A0C9
:1039C0006020200000FFFF30187CE3C000000000F2
:1039D000101F1F10000001131F1C181020E0E02012
:1039E000000000000000000000FFFF0000000000D9
:1039F00000000000101F1F101010101010180600FB
:103A000020E0E0E000000000E0E0E02000FF013FF7
:103A1000FEC0E01E01FFFF00101F1000031F030087
:103A2000101F1F1020E0E0C0000000000020E02078
:103A300000FF0003071C78E08000FF00101F10004B
:103A400000000000030F1F00000080C06020206005
:103A5000C080000000FEFF010000000000FFFE002B
:103A60000001070E181010180C07010020E0E020DC
:103A70002020202060C0800000FFFF202020202088
:103A8000301F0F00101F1F1000000000000000007A
:103A9000000080C060202060C080000000FEFF01A8
:103AA0000000000000FFFE000001070E1111133C92
:103AB0007C67210020E0E0202020202060C08000E2
:103AC00000FFFF101030F0D0080F0700101F1F106C
:103AD000000000030F1C10100080C0602020202078
:103AE0004040E00000070F0C1818303060E0810003
:103AF000001F0C0810101010180F07008060202005
:103B000020E0E020202060800100000000FFFF0096
:103B10000000000100000000101F1F100000000046
:103B200020E0E020000000000020E02000FFFF0077
:103B3000000000000000FF0000070F181010101018
:103B4000100807002060E0E02000000020E0602076
:103B50000000077FF88000807C0300000000000068
:103B6000071F1C070000000020E0E02000E0E0202C
:103B70000020E0200007FFF8E01FFFFCE01F00002E
:103B80000000031F0300011F03000000002060E08D
:103B9000A0000020E0602000000000038F7CF8C639
:103BA000010000000010181E130001171F1810005C
:103BB0002060E0E02000000020E06020000001071D
:103BC0003EF8E0180700000000000010101F1F1052
:103BD0001000000000806020202020A0E0E02000F5
:103BE00000000000C0F03E0F0300000000101C1F8A
:103BF00017101010101806000000000000FC04044C
:103C0000040404000000000000FF000000000000A9
:103C100000000000007F404040404000000010E0F5
:103C2000000000000000000000000000031C608095
:103C30000000000000000000000000030C70800085
:103C400000000404040404FC000000000000000064
:103C5000000000FF00000000000040404040407FA6
:103C60000000000000000010080C040C0810000008
:103C70000000000000000000000000000000000044
:103C80000000000000000000000000000000000034
:103C90000000000000000000000000000000000024
:103CA0008080808080808080808080800000000410
:103CB00004080800000000000000000000000000F0
:103CC00000000000000000000000000000000000F4
:103CD000000000000000000000000000000098D874
:103CE00044642424FCF80000000F1F181010100872
:103CF0001F1F10180020E0F000000000000000006E
:103D00000000FFFF180804040CF8F00000001F0F6B
:103D100018101010180F0300000000000000000031
:103D20000000000000E0F8180404043C3800000023
:103D300000030F0C10101010080600000000000017
:103D400000000020E0F0000000E0F81C040404087B
:103D5000FFFF000000030F18101010081F0F0800CD
:103D60000000000000000000000000000000E0F87B
:103D7000484444444C7870000000030F0C181010A5
:103D8000100804000000000080C0602020E0C00097
:103D900000040404FFFF04040404000000001010E9
:103DA0001F1F1010100000000000000000000000A5
:103DB00000000000000070F88C04048CF874040CFF
:103DC000007076CF8D8D8D89C87870000020E0F06E
:103DD00000000000000000000000FFFF08040404D1
:103DE000FCF8000000101F1F100000101F1F100023
:103DF00000000000006060000000000000000404FB
:103E000004FCFC000000000000001010101F1F1038
:103E100010100000000000000000006060000000C2
:103E200000000000040404FCFC0000000000C0C00E
:103E30008080C07F3F0000000020E0F00000000014
:103E4000000000000000FFFF80C0F41C040400001C
:103E500000101F1F1100031F1C1010000000202065
:103E600020E0F000000000000000000000FFFF0064
:103E70000000000000001010101F1F1010100000A4
:103E800000000000000000000000000004FCFC082E
:103E900004FCFC0804FCFC00101F1F10001F1F1076
:103EA000001F1F10000000000000000000000000C4
:103EB0000004FCFC08080404FCF8000000101F1FAC
:103EC000100000101F1F1000000000000000000084
:103ED0000000000000E0F0180C04040C18F0E000F2
:103EE00000030F0C101010100C0F03000000000056
:103EF00000000000000000000004FCFC08040404B2
:103F00000CF8F0000080FFFF889010101C0F0300D9
:103F100000000000000000000000000000E0F81CAD
:103F200004040408F8FC000000030F181010908827
:103F3000FFFF800000000000000000000000000003
:103F4000040404FCFC100804040C0C001010101FE6
:103F50001F10101000000000000000000000000012
:103F60000000000000003078CCC48484840C1C0065
:103F700000001E1810101011190F0600000000009C
:103F800000C000000000000000040404FFFF04045F
:103F900004000000000000000F1F1010100C0000B3
:103FA0000000000000000000000000000004FCFE13
:103FB00000000004FCFE000000000F1F1810100895
:103FC0001F0F0800000000000000000000000000BB
:103FD00000040C3CFCC40000C43C0C0400000000C5
:103FE000010F1E0E01000000000000000000000094
:103FF00000000000043CFCC400E47CFC84807C04E1
:104000000000071F070000071F0700000000000056
:1040100000000000000000000004041C7CE4C03428
:104020001C0404000010101C1601131F1C181000A3
:1040300000000000000000000000000000040C3C34
:10404000FCC400C43C0404000000C080C1370E0161
:104050000000000000000000000000000000000060
:1040600000001C0404C4F47C1C0400000000101CAC
:104070001F17111010180E0000000000000000F8BB
:104080000C04000000000000001028EF00000000F9
:10409000000000000000003F604000000000000041
:1040A0000000FF0000000000000000000000FF0012
:1040B00000000000000000000000FF000000000001
:1040C0000000040CF80000000000000000000000E8
:1040D000EF28100000000000000040603F000000DA
:1040E000000000000018060202040810202030081A
:1040F00000000000000000000000000000000000C0
:1041000000000000000000000000F010101010FF80
:1041100010101010F000000000000F04040404FF51
:10412000040404040F0000004040405F55555575DD
:104130005555555F404040000040200F094989799E
:104140000909090F2040000000FE02424ACA4A4AFB
:10415000CA4A4A4202FE000000FF40504C43404021
:104160004F50505C40FF00000000F888888888FFAE
:1041700088888888F800000000001F080808087F69
:10418000888888889F80F00080828282828282E292
:10419000A2928A8682808000000000000040807F1A
:1041A0000000000000000000101010FF10900888B0
:1041B0008888FF88888808000444827F01808040C6
:1041C000432C1028468180000010101010D030FFC2
:1041D00030D0121C1010000010080402010000FF73
:1041E000000001020408100004040484E43C2724B5
:1041F000242424E40404040004020100FF09090942
:104200000949897F0000000000FE225A8600FE92C4
:1042100092929292FE00000000FF04080700FF4007
:1042200020030C142241400000804020180680002A
:10423000071820408000000001002070282621205F
:104240002024386000010100001012929292929294
:1042500092121202FE0000000000003F1010101029
:104260003F0040807F000000000000C08080808010
:10427000808080FC84808080808080C0C0000000BE
:10428000000000FF7F404040404040FF4040404031
:10429000404040FF7F0000000000000000000000E0
:1042A0000000007F7000000000000000000000001F
:1042B000000000000000000000000000000000FC02
:1042C000F8000000000000000000000000000000F6
:1042D00000000000FFFE020202020202020202FFD0
:1042E000FF020202020202020202FF0300000000BB
:1042F000000000001F1F040404040404040404FF5D
:10430000FF0404040404040404041F00000000006B
:104310000000000000000000000000000000007F1E
:104320003F0000000000000000000000000000004E
:10433000000000000000000000000000000000007D
:1043400000000000000000000000000000F8F8F08D
:10435000F0702000000000000000000000000000DD
:10436000000000000000000000000000000000004D
:1043700000000000000000008000000000000000BD
:1043800000000000000000000000000000FFFFFF30
:10439000FF0000000000000000000000000000001E
:1043A000000000008080000000000000000000000D
:1043B000000000000000000000FFFFFE06060606E9
:1043C00006060606060606060606060606FFFFFFA2
:1043D000FF06060606060606060606060606060684
:1043E000060606FFFFFFFF070200000000000000B6
:1043F000000000000000000000FFFFFF00000000C0
:1044000000000000000000000000000000FFFFFFAF
:10441000FF0000000000000000000000000000009D
:10442000000000FFFFFFFF00000000000000000090
:10443000000000000000000000FFFFFF181818181F
:1044400018181818181818181818181818FFFFFF37
:10445000FF181818181818181818181818181818F5
:10446000181818FFFFFFFF00000000000000000008
:104470000000000000000000020101000000000038
:1044800000000000000000000000000000FFFFFF2F
:10449000FF0000000000000000000000000000001D
:1044A000000000010100000000000000000000000A
:1044B00000000000000000000000000000000000FC
:1044C00000000000000000000000000000FFFFFFEF
:1044D000FF000000000000000000000000000000DD
:1044E00000000000000000000000000000000000CC
:1044F00000000000000000000000000000000000BC
:10450000000000000000000000000000001F1F0F5E
:104510000F0000000000000000000000000000008C
:10452000000000000000000000000000000000008B
:10453000504500080000002040000000DC1C00087E
:10454000904500084000002080080000EC1C000896
:1045500000A24A0400000000000000000102030461
:10456000060708090000000000C0F9A4B099928273
:10457000F880908CBFC6A186FFBF0000000000003D
:10458000000000000000000000000000000000002B
:0400000508000131BD
:00000001FF
