:020000040800F2
:10000000480B0020490100081D1900085310000882
:10001000A912000809080008B92E00080000000015
:100020000000000000000000000000003121000876
:10003000350A000800000000AD20000899220008E1
:100040006301000863010008630100086301000800
:1000500063010008630100086301000863010008F0
:1000600063010008630100086301000863010008E0
:1000700063010008630100086301000863010008D0
:1000800063010008630100086301000863010008C0
:1000900063010008630100086301000863010008B0
:1000A00063010008630100086301000863010008A0
:1000B0006301000863010008630100086301000890
:1000C0006301000863010008630100086301000880
:1000D00063010008BD2D00086301000863010008EA
:1000E0006301000863010008630100086301000860
:1000F0006301000863010008630100086301000850
:10010000630100086301000863010008630100083F
:1001100063010008630100083D250008C9250008A7
:10012000630100086301000863010008630100081F
:10013000DFF810D000F0E0FA004800479D2F0008DB
:10014000AFF30080480B0020064880470648004770
:10015000FEE7FEE7FEE7FEE7FEE7FEE7FEE7FEE777
:10016000FEE7FEE79D2200083101000840EA010396
:100170009B0703D009E008C9121F08C0042AFAD25D
:1001800003E011F8013B00F8013B521EF9D2704721
:10019000F0B480EA0102D40F4200B2EB410F02D268
:1001A0000246084611464A0042D0C30DDDB2C1F3F3
:1001B000C752AD1A202D35DAC1F3160141F4000201
:1001C00004B15242C5F1200602FA06F12A41104458
:1001D000B3EBD05F23D0C4B1012DA0EBC35009DC39
:1001E000F0BC4FF0004202EAC352DBB200F500005F
:1001F00000F0F7B9400000F1807000EBC350A0F1AF
:10020000807040EAD170490009E0490841EAC071B4
:10021000A0EBC35000F50000400800EBC350F0BC59
:1002200000F0D6B96142012202EB4101001BF6E762
:10023000F0BC704781F00041AAE780F00040A7E7DA
:1002400080EA010210B502F00043400022D04A00CB
:100250001FD0010E01EB1261C0F35600C2F356022B
:1002600040F4000042F40002A0FB022000047F39A9
:10027000140400D0401C50EA124001D44000491E32
:10028000C2B20C0604EBD010401C4008802A02D0F9
:1002900003E0002010BD20F00100002900DA00205A
:1002A000184310BD30B480EA010202F0004530F07E
:1002B000004221F0004013D090B1C30DD40DC2F321
:1002C0001601C0F31600E41A41F4000140F40002E4
:1002D0007D34914201D3641C00E04900002C02DA15
:1002E00030BC002070474FF400000023914201D33E
:1002F000891A034340084FEA4101F7D151B19142B5
:1003000002D14FF0004105E002D24FF0010101E0BF
:100310006FF0010103EBC450284430BC00F058B921
:100320002DE9FE4F81EA030404F0004421F000416E
:1003300000944FF0000B23F0004350EA01045ED01C
:1003400052EA03045BD0C3F30A54C1F30A552C44A8
:10035000A4F2F3340194A0FB0254C1F3130141F45D
:100360008011C3F3130343F4801301FB024400FB29
:10037000034E840A970A44EA815447EA8357A4FB50
:10038000076802958D0A05FB07854FEA932C04FB4D
:100390000C542705029D4FEA065847EA1637B5EB7D
:1003A00008056EEB070C870E920E47EA811742EAAA
:1003B0008312A7FB0201B6EB0B0164EB00042B0DCB
:1003C00043EA0C335E1844EB1C50DA465146E7FB17
:1003D0000201C5F313044FEA0B3343EA14534FEA07
:1003E0000432019C43EA0603A4F10C040294009C2D
:1003F000CDE900B400F032F903B0BDE8F08F002081
:100400000146F9E72DE9F04D81EA030404F0004BC1
:1004100021F0004514464FF0000A23F0004150EA55
:10042000050220D054EA01021DD0C5F30A57024646
:10043000C5F31303C1F31300C1F30A5640F480154A
:1004400043F48013A7EB0608101BD64608F2FD38CC
:1004500073EB050002D308F1010801E092185B413B
:10046000B8F1000F03DA00200146BDE8F08D00204E
:100470004FF48011064684460EE0171B73EB050708
:1004800005D3121B63EB050306434CEA010C490834
:100490004FEA300092185B4150EA0107EDD152EA71
:1004A000030012D082EA040083EA0501084305D064
:1004B000101BAB4106D20122002306E000224FF0C0
:1004C000004302E06FF0010253101AEB06004CEB00
:1004D000085110EB0A0041EB0B01BDE8F04D00F0B4
:1004E000AEB8C10F80EAE0700844CA079623002125
:1004F00000F077B80EB5C10F80EAE0700844CA0773
:10050000002140F233438DE80E000A460B4600F00E
:10051000A5F803B000BD00F0004220F00040C10D7E
:10052000C0F3160040F400007F2901DA0020704774
:10053000962903DCC1F19601C84001E09639884054
:10054000002AF4D04042704700F0004230F00040F2
:100550000AD0C10D01F56071C0F3160042EA0151E5
:10056000C20840071143704700200146704701F060
:10057000004330B421F0004150EA010206D00A0DD8
:10058000A2F56072C1F31301002A02DC30BC002026
:100590007047440F44EAC104C100E01830BC00EBCE
:1005A000C25000F015B80000002801DBC0F1004087
:1005B000002901DBC1F1004181427047002801DBC5
:1005C000C0F10040002901DBC1F1004188427047C1
:1005D0000029A8BF7047401C490008BF20F0010057
:1005E000704710B4B0FA80FC00FA0CF050EA010435
:1005F00004BF10BC704749B1CCF1200421FA04F4C7
:1006000011FA0CF118BF012121430843A3EB0C019F
:10061000CB1D4FEA00614FEA102042BF002010BC02
:10062000704700EBC35010440029A4BF10BC7047B2
:10063000401C490008BF20F0010010BC704710B5F5
:10064000141E73F1000408DA401C41F100019218F5
:100650005B411A4301D120F0010010BD2DE9F04D9E
:1006600092469B4611B1B1FA81F202E0B0FA80F2F3
:100670002032904600F052F804460F4640EA0A0045
:1006800041EA0B0153465A46084313D0114653EA38
:10069000010019D0C8F14002504600F04EF805465E
:1006A0000E4650465946424600F038F8084305D0F9
:1006B000012004E020463946BDE8F08D00200543C6
:1006C00046EAE0762C4337430A986305E40AA0EB38
:1006D00008000022FD0A44EA47540A3002D50020EF
:1006E0000146E9E7010510196941DDE908450019EE
:1006F0006941BDE8F04DA2E7064C074D06E0E06811
:1007000040F0010394E8070098471034AC42F6D358
:10071000FFF712FD8C4E0008AC4E0008202A04DBC7
:10072000203A00FA02F1002070479140C2F1200304
:1007300020FA03F3194390407047202A04DB203A43
:1007400021FA02F00021704721FA02F3D040C2F1F1
:100750002002914008431946704770B58C1810F874
:10076000015B15F0070301D110F8013B2A1106D1F6
:1007700010F8012B03E010F8016B01F8016B5B1E10
:10078000F9D12B0705D40023521E0DD401F8013BEB
:10079000FAE710F8013BCB1A921C03E013F8015B57
:1007A00001F8015B521EF9D5A142D8D3002070BDDB
:1007B00010B501F073FD4FF4A06001F0E9F802F00C
:1007C0008DFB02F0CFFB00F029FD01F063F900F092
:1007D00037FD00214FF4616000F058FF01F000FC8C
:1007E00000F04EF900231A461946184600F0E2FEC2
:1007F0000121084601F07CFC0121024800F0D4FBF5
:1008000010BD00000002300000BFFEE72DE9FF41EF
:1008100000F084FC02281FD16E480078401C05219E
:1008200090FBF1F201FB12006A49087000206A494E
:1008300008706A490870012000F0EEFE65480078F3
:10084000042805D1664801886648006800F072FCFB
:100850004FF4FA7002F068FB60480078D8B900F0F5
:1008600051FC012817D100F0D7FE01205B49087028
:100870000020594908704FF47A7002F055FB4FF48C
:100880007A7002F051FB4FF47A7002F04DFB4FF496
:10089000FA7002F049FB5148007800287ED0524897
:1008A0004C49097850F821404B48007804EBC001CE
:1008B00003C9CDE902019DF80800012806D00228ED
:1008C0000ED0032818D0042822D122E0002004E012
:1008D000464A039942F82010401C0428F8DB25E022
:1008E0000398404241490860039840424860039899
:1008F00088600398C86019E03C4903980860039831
:10090000486003984042886003984042C8600DE008
:1009100000BF002004E00021344A42F82010401CAF
:100920000428F8DB00202D49087000BF00BFBDF986
:100930000A10002002F0A4FA0546BDF90A100120B1
:1009400002F09EFA0646BDF90A10022002F098FA5B
:100950000746BDF90A10032002F092FA804643468A
:100960003A463146284600F025FE00F043F868B3C9
:1009700019480078401C04EBC00103C9CDE900010F
:100980009DF80000042812D1BDF8020078B9019842
:1009900068B9002011490870154900E017E00860A7
:1009A00048608860C860012000F036FE0DE000203D
:1009B0000F49086048608860C860012000F02CFE84
:1009C00005480078401C0449087000BF00BFBDE81E
:1009D000FF81000060000020610000206200002014
:1009E000580000201800002044010020BC06002010
:1009F000AC060020002114E00C4A52F82120002A05
:100A00000EDD0B4A52F82100002801DB024600E00F
:100A10004242064B53F821309A4201DA00207047D7
:100A2000491C0429E8DB0120F9E70000BC0600208E
:100A3000AC06002070470146B1F57A6F01DD032056
:100A4000704740F2DC50814201DD0220F8E70120CE
:100A5000F6E7000006490968016006490968416037
:100A600005490968816005490968C160704700004F
:100A7000180000201C00002020000020240000207E
:100A800010B500F007F800F0D7F800F037F900F0E3
:100A900071F810BD00B587B00121084601F028FBB0
:100AA0000121314800F080FA0121084601F000FBE5
:100AB0000121042001F01CFB4FF40040ADF80000C0
:100AC00004208DF803006946284800F0E1F901216F
:100AD000082001F00DFB0820ADF8000004208DF87F
:100AE00003006946224800F0D3F904A802F05CF93B
:100AF0000020ADF810004FF6FF70ADF81400002094
:100B0000ADF81600ADF8120004A94FF0804002F0D5
:100B1000F9F800231A4603214FF0804001F0EAFE65
:100B200001A801F06FFF0A20ADF80C0001A94007F1
:100B300001F012FF0121880701F0C6FD01221146D4
:100B4000900701F068FF00214FF0804002F0ABF801
:100B500047F6FF704FF0804188840121880701F03B
:100B6000B9FD07B000BD00000001180000080140F9
:100B7000000C014000B587B00121022001F098FA75
:100B80000121042001F0B4FA8020ADF80000042017
:100B90008DF803006946264800F07AF90121042007
:100BA00001F0A6FA4020ADF8000004208DF8030003
:100BB00069461F4800F06CF904A802F0F5F800201F
:100BC000ADF810004FF6FF70ADF814000020ADF83E
:100BD0001600ADF8120004A9164802F093F800239D
:100BE0001A460321134801F085FE01A801F00AFF0F
:100BF0000A20ADF80C0001A90E4801F0ADFE01215C
:100C00000C4801F061FD012211460A4801F003FF82
:100C10000021084802F047F847F6FF7005492431E3
:100C200008800121034801F055FD07B000BD000018
:100C3000000801400004004000B587B001210420F5
:100C400001F036FA0121082001F052FA8020ADF8B7
:100C5000000004208DF803006946264800F018F9CA
:100C60000121082001F044FA4020ADF800000420E2
:100C70008DF8030069461F4800F00AF904A802F045
:100C800093F80020ADF810004FF6FF70ADF8140097
:100C90000020ADF81600ADF8120004A9164802F0C5
:100CA00031F800231A460321134801F023FE01A85E
:100CB00001F0A8FE0A20ADF80C0001A90E4801F0D1
:100CC0004BFE01210C4801F0FFFC012211460A48AD
:100CD00001F0A1FE0021084801F0E5FF47F6FF7092
:100CE0000549243108800121034801F0F3FC07B0D5
:100CF00000BD0000000C01400008004000B587B0B6
:100D00000121082001F0D4F90121042001F0F0F9BB
:100D10000120ADF8000004208DF803006946264844
:100D200000F0B6F80121042001F0E2F90220ADF84C
:100D3000000004208DF8030069461F4800F0A8F861
:100D400004A802F031F80020ADF810004FF6FF7053
:100D5000ADF814000020ADF81600ADF8120004A99B
:100D6000164801F0CFFF00231A460321134801F073
:100D7000C1FD01A801F046FE0A20ADF80C0001A952
:100D80000E4801F0E9FD01210C4801F09DFC012213
:100D900011460A4801F03FFE0021084801F083FF98
:100DA00047F6FF700549243108800121034801F00E
:100DB00091FC07B000BD000000080140000C00409D
:100DC0000146002031B101290ED0022918D0032993
:100DD0002AD11FE0164A128847F6FF739A1A10B2FA
:100DE0001A46134B1A8020E04FF08042928C47F64F
:100DF000FF739A1A10B21A464FF080439A8414E097
:100E00000C4A128847F6FF739A1A10B21A46094B19
:100E10001A800AE0084A128847F6FF739A1A10B23D
:100E20001A46054B1A8000E000BF00BF7047000063
:100E30002404004024080040240C004010B5002089
:100E4000FFF7BEFF0E490968081A0D490860012026
:100E5000FFF7B6FF0B49096808440A4908600220F9
:100E6000FFF7AEFF084909680844074908600320F6
:100E7000FFF7A6FF05490968081A0449086010BD74
:100E8000180000201C00002020000020240000206A
:100E90002DE9F04102460025002600200023002411
:100EA000002791F803C00CF00F0591F803C00CF077
:100EB000100CBCF1000F03D091F802C04CEA0505FC
:100EC00091F800C0BCF1000F31D0146800202BE075
:100ED0004FF0010C0CFA00F3B1F800C00CEA030665
:100EE0009E4220D183004FF00F0C0CFA03F7BC4355
:100EF00005FA03FC4CEA040491F803C0BCF1280F86
:100F000006D14FF0010C0CFA00FCC2F814C00AE044
:100F100091F803C0BCF1480F05D14FF0010C0CFA59
:100F200000FCC2F810C0401C0828D1D31460B1F8EE
:100F300000C0BCF1FF0F34DD546800202EE000F14A
:100F4000080C4FF0010808FA0CF3B1F800C00CEAE5
:100F500003069E4221D183004FF00F0C0CFA03F7D9
:100F6000BC4305FA03FC4CEA040491F803C0BCF14D
:100F7000280F05D100F1080C08FA0CF8C2F814800B
:100F800091F803C0BCF1480F07D100F1080C4FF0F5
:100F9000010808FA0CF8C2F81080401C0828CED3CB
:100FA0005460BDE8F0810000F0B50A46002300243B
:100FB0000021002500F00046B6F1004F02D11D4E81
:100FC000F16901E01B4E7168C0F3034583B200F480
:100FD0004016B6F5401F08D121F07061154E7668B5
:100FE00026F07066134F7E6012E000F48016B6F5AE
:100FF000801F06D1032606FA05F4A14341F0706173
:1010000006E0460D360103FA06F6B14341F0706181
:1010100022B1460D360103FA06F6314300F00046D0
:10102000B6F1004F02D1034EF16101E0014E716053
:10103000F0BD0000000001400246002093680B4014
:101040000BB1012000E00020704741617047016151
:10105000704700BFFEE7000010B54FF400710C4868
:10106000FFF7F5FF4FF480710948FFF7F0FF00F03C
:1010700041F84FF400710648FFF7E7FF00F03AF837
:101080004FF480710248FFF7E0FF00F033F810BD25
:10109000000C014010B54FF400710848FFF7D5FF70
:1010A0004FF480710548FFF7D2FF00F023F84FF4AA
:1010B00000710248FFF7CBFF10BD0000000C01409B
:1010C00010B54FF400710A48FFF7C1FF00F012F8A5
:1010D0004FF480710648FFF7BAFF00F00BF84FF4A9
:1010E00080710348FFF7B1FF00F004F810BD000065
:1010F000000C0140032000BF011EA0F10102D0B28C
:10110000FAD1704710B504210348FFF795FF08B9DD
:10111000012010BD0020FCE7000C014010B510219B
:101120000348FFF789FF08B9022010BD0020FCE743
:10113000000C01402DE9F04105460C462846FFF71A
:101140007AFC06462B480068201A032824D32A4834
:101150002A49097850F8210030442749274A127853
:1011600041F8220025480078401C0A2190FBF1F24A
:1011700001FB1200214908701E48046020480078D5
:10118000401C1F49087000201E4908601E49086065
:101190001E4908601E490860194800780A2826DBA5
:1011A000012019E0144911F82020002110E0194B0A
:1011B00013F8313093420AD1174B03EBC003154F9C
:1011C00007EBC10CDCE9007CC3E9007C02E0491CB0
:1011D0000329ECD300BF401C0A28E3DB00200949A7
:1011E0000860094908600949086009490860BDE8C4
:1011F000F081000030000020640100202E0000205B
:1012000034000020180000201C00002020000020D6
:10121000240000207C310008F400002008B50121E2
:10122000082000F065FF1420ADF8000048208DF87C
:10123000030069460148FFF72BFE08BD000C014082
:1012400010B59AB06022164901A8FEF78FFF00245E
:101250001FE004EB440101AA02EB8101886801212F
:1012600000F046FF04EB440001A901EB80008088F8
:10127000ADF8640003208DF8660018208DF8670033
:1012800004EB440101AA52F8210019A9FFF700FE5E
:10129000641C082CDDDB0F20024908701AB010BD59
:1012A0001C3100082800002000BFFEE700487047FE
:1012B000148E244300487047F8334C4300200B49F8
:1012C0000978012906D0022906D0042906D005296B
:1012D00008D105E0064807E0064805E0044803E0B9
:1012E000054801E0024800BF00BF704761010020CF
:1012F0000000A54400001A45000051442DE9FF5F9D
:101300002C48FFF7A7FB4FF0000A4DE0294850F8A2
:101310002A00294951F82A10401A284941F82A0080
:10132000244850F82A00244941F82A00FFF7C6FF54
:101330000546224951F82A10C1EB011189006422A7
:1013400001FB02F0FFF7CDF806462946FEF7AAFF9B
:101350000446FFF7E0F81A4941F82A00FFF7AAFF10
:101360008346FFF7F1F880460022164BFFF74AF854
:10137000CDE90001124951F82A00FFF7BBF80646F3
:10138000DDE90023FEF7CCFF00220F4BCDE902017F
:10139000FFF738F80446FFF7EAF80C4941F82A004D
:1013A0000AF1010000F0FF0ABAF1040FAEDBBDE85C
:1013B000FF9F0000CC060020DC060020EC06002089
:1013C0002407002000408F4000004E4034070020DA
:1013D0002DE9F04F87B005460024002003900490CB
:1013E00005900690FFF766FF0290FFF767FF0190F8
:1013F000FFF75CFF0090FFF781FF00BF13E03C495F
:1014000051F82410642201FB02F0FFF76AF8074646
:101410000299FEF715FF06460199FEF743FF03A95F
:1014200041F82400641C042CE9DBDDE90301FEF72C
:10143000AFFE81460599FEF7ABFE80460699FEF7A2
:10144000A7FE07464FF08141FEF72CFF0646FFF747
:1014500062F800B22880DDE90301FEF7EBFE814669
:101460000599FEF7E7FE80460699FEF791FE80F0AB
:1014700000474FF081413846FEF714FF0646FFF75C
:101480004AF800B26880DDE90301FEF781FE834679
:101490000599FEF7CFFE82460699FEF7CBFE80F057
:1014A00000494FF081414846FEF7FCFE8046009916
:1014B000FEF7F8FE07460F49FEF7C2FE0646FFF7A5
:1014C0002AF800B2A8800C48007868B1002406E031
:1014D00003A850F82400094941F82400641C042C96
:1014E000F6DB064800F0D0FC07B0BDE8F08F000046
:1014F000EC06002000007A4458010020FC06002081
:101500002DE9F0411048FFF763FF10480078C8B19B
:101510000F49C869FEF7FFFF04B20D498869FEF75D
:10152000FAFF05B20A494869FEF7F5FF06B2084915
:101530000869FEF7F0FF07B223462A4631463846CF
:1015400000F008F8BDE8F0815A01002058010020A1
:10155000FC0600202DE9F04104460F4615461E46C4
:1015600014F5616F06DBB4F5616F03DC21460020E2
:1015700000F00AF917F5616F06DBB7F5616F03DC60
:101580003946012000F000F915F5616F06DBB5F56D
:10159000616F03DC2946022000F0F6F816F5616F52
:1015A00006DBB6F5616F03DC3146032000F0ECF892
:1015B000BDE8F0812DE9FC5F05460E4691469A464E
:1015C000012012490870124805844684A0F824902E
:1015D000A0F826A0002415E00D49203131F91400AF
:1015E000FEF788FF00220B4BCDE90001FEF798FEC5
:1015F0000746FEF7BCFF83465946204600F03CFDF7
:10160000601CC4B2042CE7DBBDE8FC9F580100203D
:10161000FC0600200000F03F10B5044600200D49F4
:1016200008600D4908600D4908600D4908600023F5
:101630001A4619461846FFF7BDFF042000F03CFC8F
:1016400000200849087008490870204600F004F995
:1016500010BD0000180000201C0000202000002009
:1016600024000020580100206001002001460029CC
:1016700003DD01F5C86000B27047002903DAA1F567
:10168000C86000B2F8E70020F6E7000030B587B088
:1016900005460C4601214FF4205000F029FD0121A0
:1016A000084600F025FD01213448FFF77DFC344851
:1016B00001F02CF8334801F029F8ADF80040681E1D
:1016C00080B2ADF804000020ADF80600ADF80200CD
:1016D00069462B4801F016FB69462A4801F012FBC7
:1016E00003A801F0CDFA6020ADF80C000120ADF8A0
:1016F0000E000020ADF81400ADF8120003A9204838
:1017000001F092F903A91E4801F0DAF903A91C4877
:1017100001F028FA03A91A4801F074FA03A919483C
:1017200001F082F903A9174801F06CFA6020ADF8C6
:101730000C000020ADF80E000420ADF810000020D1
:10174000ADF81400ADF8120003A90E4801F0B8F985
:1017500003A90C4801F006FA0121094800F0C6FF70
:101760000121084800F0C2FF0121054800F0B2FF46
:101770000121044800F0AEFF07B030BD4000160064
:1017800000340140002C014070B505460E4630463D
:10179000FFF76CFF0446B4F5616F01DB4FF4616441
:1017A00014F5616F00DC294C35B1012D15D0022DE7
:1017B00026D0032D46D134E0604204B2002C05DB74
:1017C00023490C800020091D088005E000202049E5
:1017D00008806042091D088035E0604204B2002C98
:1017E00006DB1B4908310C800020091D088006E03B
:1017F00000201749083108806042091D088022E056
:10180000002C06DB13490C80002012490C3908809B
:1018100006E000200F49088060420E490C3908801C
:1018200011E0002C06DB0B4908390C800020091D53
:10183000088006E000200749083908806042091D39
:10184000088000E000BF00BF70BD0000F0F1FFFFA6
:1018500034340140402C014010B5044604B1012449
:10186000C4EB4410C0EB04204FF6FF7202EA0011F3
:10187000284801F00FFAC4EB4410C0EB04204FF6E7
:10188000FF7202EA0011234801F006FAC4EB44108B
:10189000C0EB04204FF6FF7202EA00111D4801F070
:1018A000FDF9C4EB4410C0EB04204FF6FF7202EACE
:1018B0000011184801F0F4F9C4EB4410C0EB042007
:1018C0004FF6FF7202EA0011134801F0E3F9C4EB8E
:1018D0004410C0EB04204FF6FF7202EA00110E48DC
:1018E00001F0DAF9C4EB4410C0EB04204FF6FF72AC
:1018F00002EA0011084801F0D1F9C4EB4410C0EB32
:1019000004204FF6FF7202EA0011034801F0C8F903
:1019100010BD000000340140002C01407047000061
:1019200070B5002100230F22C47804B3154C24683D
:1019300004F4E064C4F5E064210AC1F10403CA4080
:10194000447804FA03F184781440214309010E4CD1
:101950000678A155047804F01F050124AC400578F1
:101960006D11AD0005F1E025C5F8004109E00478EE
:1019700004F01F050124AC40044D0678761145F8AB
:10198000264070BD0CED00E000E400E080E100E0E6
:1019900002490143024A1160704700000000FA0545
:1019A0000CED00E070B500240CE0002506E00020FE
:1019B000074901EBC5010855681CC5B2802DF6DB4F
:1019C000601CC4B2082CF0DB00F004F970BD00000C
:1019D0002C02002010B504461CB90021A62000F0FE
:1019E00036FA012C03D10021A72000F030FA10BDF7
:1019F00010B504463CB90021C82000F028FA0021A7
:101A0000A12000F024FA012C07D10021C02000F011
:101A10001EFA0021A02000F01AFA10BDF0B51446FD
:101A20000B46CF1701EB5777C7F3C702CF1701EB70
:101A30005777FF10A1EBC707FEB20123B340DDB219
:101A40004CB1134B03EBC0039B5C2B43104F07EBD4
:101A5000C007BB541AE00E4B03EBC0039B5CDB4397
:101A60000B4F07EBC007BB54094B03EBC0039B5C58
:101A70002B43074F07EBC007BB54054B03EBC003D9
:101A80009B5CDB43024F07EBC007BB54F0BD00007B
:101A90002C02002008B501213C2000F029FB4FF466
:101AA0004070ADF8000014208DF8030003208DF87D
:101AB000020069464048FFF7EBF94FF440713E4899
:101AC000FFF7C5FA0021AE2000F0C1F90021084659
:101AD00000F0BDF90021102000F0B9F900214020EC
:101AE00000F0B5F90021812000F0B1F90021CF20EC
:101AF00000F0ADF90021A12000F0A9F90021C820D3
:101B000000F0A5F90021A62000F0A1F90021A820ED
:101B100000F09DF900213F2000F099F90021D32029
:101B200000F095F90021084600F091F90021D52038
:101B300000F08DF90021802000F089F90021D920E2
:101B400000F085F90021F12000F081F90021DA2070
:101B500000F07DF90021122000F079F90021DB204E
:101B600000F075F90021402000F071F900212020DB
:101B700000F06DF90021022000F069F900218D20AC
:101B800000F065F90021142000F061F90021A42083
:101B900000F05DF90021A62000F059F9FFF702FFDF
:101BA0000021AF2000F053F90020FFF713FF0020C1
:101BB000FFF71EFF08BD0000000C014010B50246F3
:101BC000012000E050430B1EA1F10104E1B2F9D164
:101BD00010BD000070B500242BE004F1B001C8B2C4
:101BE000002100F034F90021084600F030F900210E
:101BF000102000F02CF9FFF72FFA782000F09AFA65
:101C0000FFF75EFA402000F095FAFFF759FA002539
:101C100009E0094901EBC501085D00F08BFAFFF707
:101C20004FFA681CC5B2802DF3DBFFF733FA601C56
:101C3000C4B2082CD1DB70BD2C0200202DE9FE4F70
:101C40000746884692461C460197CDF80080082C2E
:101C500002D14FF006091FE02046E31704EB53734F
:101C6000DB1021464FEAE47C04EB5C7C4FEAEC0C91
:101C7000A4EBCC0CBCF1000F02D04FF0010C01E042
:101C80004FF0000C6344224604EBD27C4FEA6C0C0C
:101C900003FB0CF303F0FF09AAF12000C6B20025F4
:101CA0005EE0082C07D106EB46002F4901EB40000F
:101CB00010F805B01DE00C2C07D106EB46002B49AF
:101CC00001EB800010F805B013E0102C05D1284876
:101CD00000EB061010F805B00BE0182C07D106EB4E
:101CE000C600244901EB800010F805B001E0BDE812
:101CF000FE8F002002901CE00BF0010028B141464D
:101D000038460C9AFFF78AFE09E00C9808B90120C2
:101D100000E00020024641463846FFF77FFE4FEACA
:101D20006B0B08F1010000F0FF080298401CC0B2E4
:101D3000029002980828DFDB781CC7B2082C0BD071
:101D400004EBD4714A100199791A8A4204D1019F97
:101D500000980830C0B20090DDF80080681CC5B261
:101D60004D459EDB00BFC2E794310008BC3300083C
:101D700030380008203E00082DE9FF4F82B00646AB
:101D800091461F46DDE90F4A4FF0000B082C01D1A8
:101D90004FF0020B002530E0781B401EC1B20A2034
:101DA000FFF70CFFB9FBF0F00A21B0FBF1F201FBE9
:101DB0001208B8F1000F0ED104EBD4710BEB6101E6
:101DC00001FB0561C8B223463022CDE900A4039986
:101DD000FFF734FF0FE004EBD4710BEB610101FB63
:101DE0000561C8B208F13001CAB22346CDE900A4AA
:101DF0000399FFF723FF681CC5B2BD42CCDB06B0D8
:101E0000BDE8F08F2DE9F84106460F4614461D4601
:101E1000DDF81C8013E0CDF8008022782B4639468F
:101E20003046FFF70BFF082D02D1B01DC6B205E00A
:101E3000284605EBD07106EB6101CEB2641C207818
:101E4000202802DB20787E28E5DDBDE8F88170B52A
:101E500005460C46FFF700F9782000F06BF9FFF714
:101E60002FF91CB1402000F065F902E0002000F0DD
:101E700061F9FFF725F9284600F05CF9FFF720F932
:101E8000FFF708F970BD000070B5054600240DE0AD
:101E900055F8241004EB8402064B03EBC20000F05B
:101EA00051F805F1100141F82400641C042CEFDB0B
:101EB00070BD00008C01002010B5042800DD10BDAD
:101EC000042820D100211BE0002201EB81031C4CDF
:101ED00004EBC3039A6001EB810304EBC3039A6133
:101EE00001EB810304EBC303DA6101EB810304EB33
:101EF000C3031A6201EB810304EBC3035A62491C5A
:101F00000429E1DB1AE0002100EB80020C4B03EB1B
:101F1000C202916000EB800203EBC202916100EB10
:101F2000800203EBC202D16100EB800203EBC2022C
:101F3000116200EB800203EBC202516200BFBEE7F8
:101F40008C0100202DE9F05F04460D4629462068EB
:101F5000FEF770F9A0614FF08040216AFEF770F93A
:101F60008346A169FEF769F98246E169FEF710F937
:101F700081466169FEF764F90746A1692069FEF7A9
:101F80005FF98246216AA069FEF754F98346E16849
:101F9000FEF756F981465146FEF7FAF88046394673
:101FA000FEF7F6F80646A168FEF7F2F8A060206A90
:101FB000E061A06920620849A068FEF7FFFA01D23B
:101FC0000548A0600549A068FEF7EEFA01D2034873
:101FD000A060A068BDE8F09F0000FA440000FAC4C9
:101FE000002032E0002100EB80021D4B43F832104C
:101FF00000EB800203EBC202916000EB800203EB76
:10200000C202916100EB800203EBC202D16100EBDE
:10201000800203EBC202116200EB800203EBC202FA
:102020005162104900EB800203EBC202D1600E49FD
:1020300000EB800203EBC20211614FF07C5100EB18
:10204000800203EBC2025161401C0428CADB07482E
:1020500007494860002088600648C8607047000053
:102060008C010020CDCC4C3F8FC2753DCDCCCC3EF9
:1020700038000020CDCCCC3D10B5042800DD10BDCB
:1020800004280AD1002205E002EB8203064C44F842
:102090003310521C042AF7DB04E000EB8002024BF1
:1020A00043F8321000BFEAE78C01002070470000BF
:1020B00029B1064AD2690243044BDA6104E0034ABB
:1020C000D2698243014BDA61704700000010024080
:1020D00029B1064A12690243044B1A6104E0034A1B
:1020E00012698243014B1A617047000000100240E0
:1020F00029B1064A92690243044B9A6104E0034AFB
:1021000092698243014B9A617047000000100240BF
:1021100029B1064AD2680243044BDA6004E0034A5C
:10212000D2688243014BDA60704700000010024021
:102130007047000070B5044600251FE004F08000E1
:1021400028B14FF400710F48FEF781FF04E04FF40F
:1021500000710C48FEF779FFFEF7CCFF4FF4807159
:102160000848FEF774FFFEF7C5FF4FF4807105487D
:10217000FEF76BFF6006040E681CC5B2082DDDDBA0
:1021800070BD0000000C014010B500F001F810BD5A
:102190000CB50020019000903348006840F4803076
:1021A0003149086000BF3048006800F400300090FA
:1021B0000198401C0190009818B90198B0F5A06FE3
:1021C000F1D12948006800F4003010B101200090DE
:1021D00001E0002000900098012843D123480068C6
:1021E00040F01000214908600846006820F0030014
:1021F00008600846006840F0020008601A4840681D
:10220000194948600846406848600846406840F4FC
:10221000806048600846406820F47C1048600846AA
:10222000406840F4E81048600846006840F080705C
:10223000086000BF0C48006800F000700028F9D06A
:102240000948406820F00300074948600846406894
:1022500040F00200486000BF0348406800F00C00F6
:102260000828F9D10CBD00000010024000200240F7
:10227000042808D14FF0E021096941F004014FF032
:10228000E022116107E04FF0E021096921F004012B
:102290004FF0E022116170477047000010B51348FD
:1022A000006840F001001149086008464068104984
:1022B00008400E494860084600680E4908400B492E
:1022C00008600846006820F48020086008464068DE
:1022D00020F4FE0048604FF41F008860FFF754FFB1
:1022E0004FF000600449086010BD0000001002407B
:1022F0000000FFF8FFFFF6FE08ED00E0F0B50C4629
:10230000154600220021068C4FF6FE773E400684DB
:10231000028B018C4FF60C7632407E1C06EA0316C7
:102320002E433243104EB0420ED0104EB0420BD06E
:10233000B0F1804F08D00E4EB04205D00D4EB042E5
:1023400002D00D4EB04206D14FF6FD76314044F03A
:102350000106314305E04FF6F576314044F00106C1
:10236000314302830184F0BD002C01400034014060
:102370000004004000080040000C0040F0B50C468E
:102380001546002200210026078C4FF6EF7C07EA55
:102390000C070784028B018C4FF6FF7707EA0416BF
:1023A00040F6FF473A404FF6FF7707EA03373A43D4
:1023B0004FF6FF7707EA05273A43114FB8420ED090
:1023C000104FB8420BD0B0F1804F08D00E4FB8423A
:1023D00005D00E4FB84202D00D4FB84206D14FF68D
:1023E000DF77394046F01007394305E04FF65F7755
:1023F000394044F01007394302830184F0BD0000E6
:10240000002C01400034014000040040000800405E
:10241000000C0040F0B50C461546002200210026B5
:10242000078C4FF6FF6C07EA0C070784828B018C40
:102430004FF6FF7707EA04264FF60C773A404FF63F
:10244000FF7707EA03172F433A43114FB8420ED0E4
:10245000104FB8420BD0B0F1804F08D00E4FB842A9
:1024600005D00E4FB84202D00D4FB84206D14FF6FC
:10247000FF57394046F48077394305E04FF2FF5764
:10248000394044F48077394382830184F0BD0000F1
:10249000002C0140003401400004004000080040CE
:1024A000000C0040F0B50C46154600220021002625
:1024B000078C4EF6FF7C07EA0C070784828B018CA1
:1024C0004FF6FF7707EA043640F6FF473A404FF6EB
:1024D000FF7707EA05273A434FF6FF7707EA033706
:1024E0003A43114FB8420ED0104FB8420BD0B0F162
:1024F000804F08D00E4FB84205D00E4FB84202D0E0
:102500000D4FB84206D14DF6FF77394046F480575B
:10251000394305E047F6FF57394044F480573943C3
:1025200082830184F0BD0000002C01400034014092
:102530000004004000080040000C004010B50121DC
:10254000074800F0F8F950B10121054800F0BFF844
:10255000FEF774FC0348FEF77DFAFEF7D1FF10BDCD
:1025600000100040AC0600201FB501211020FFF72D
:102570009FFD41F61F40ADF804006320ADF8080050
:1025800001A9104800F0BEFB01210E4800F09CF8A4
:10259000012211460B4800F03EFA36208DF800006B
:1025A00002208DF8010003208DF8020001208DF833
:1025B00003006846FFF7B4F90121024800F08AF8E9
:1025C0001FBD00000010004010B501211F4800F0A1
:1025D000B2F9002839D001211C4800F078F8012018
:1025E0001B4908701B480088401C80B219490880AC
:1025F0000A2804DB002008800120174908701748CA
:102600000088401C80B215490880642804DB002043
:10261000088001201249087012480088401C80B2CE
:1026200010490880B0F57A7F0FDB002008800E4843
:102630000088401C0C490880084600884EF660213E
:10264000884202DB00200849088010BD00140040C9
:10265000540000205A000020550000205C0000209B
:10266000560000205E000020580000201FB5012108
:102670002020FFF71DFD41F61F40ADF804000920A2
:10268000ADF8080001A90F4800F03CFB01210D48FE
:1026900000F01AF8012211460A4800F0BCF9372070
:1026A0008DF8000003208DF801008DF80200012054
:1026B0008DF803006846FFF733F90121014800F067
:1026C00009F81FBD00140040CA4302827047CA4384
:1026D0000282704721B1028842F00102028004E0C8
:1026E00002884FF6FE731A400280704731B1B0F88D
:1026F000442042F40042A0F8442005E0B0F8442011
:10270000C2F30E02A0F844207047000010B5044642
:102710006848844208D10121C014FFF7F9FC002168
:10272000E014FFF7F5FCC4E0B4F1804F08D10121BB
:102730000846FFF7CDFC00210120FFF7C9FCB8E0F7
:102740005D48844208D101210220FFF7C1FC00212D
:102750000220FFF7BDFCACE05848844208D10121BB
:102760000420FFF7B5FC00210420FFF7B1FCA0E036
:102770005348844208D101210820FFF7A9FC002119
:102780000820FFF7A5FC94E04E48844208D10121BF
:102790001020FFF79DFC00211020FFF799FC88E036
:1027A0004948844208D101212020FFF791FC0021F3
:1027B0002020FFF78DFC7CE04448844208D10121B1
:1027C0004014FFF7A5FC00216014FFF7A1FC70E0A6
:1027D0003F48844209D10121C804FFF799FC002138
:1027E0004FF40020FFF794FC63E03A48844209D19B
:1027F00001210805FFF78CFC00214FF48010FFF742
:1028000087FC56E03448844209D101214805FFF78E
:102810007FFC00214FF40010FFF77AFC49E02F48BD
:10282000844208D101214020FFF752FC00214020C2
:10283000FFF74EFC3DE02A48844208D10121802068
:10284000FFF746FC00218020FFF742FC31E02548DD
:10285000844208D101218015FFF73AFC0021A01520
:10286000FFF736FC25E02048844209D10121080405
:10287000FFF74EFC00214FF48030FFF749FC18E0D1
:102880001A48844209D101214804FFF741FC002184
:102890004FF40030FFF73CFC0BE01548844208D1B0
:1028A00001218804FFF734FC00214FF48020FFF75A
:1028B0002FFC10BD002C0140000400400008004027
:1028C000000C0040001000400014004000340140A3
:1028D000004C0140005001400054014000180040ED
:1028E000001C004000200040004001400044014026
:1028F00000480140F0B50C4615461E460021002256
:1029000000230189028B038C4FF6F877394021436D
:102910004FF6FC473A4040F201173A434FF6DD7755
:102920003B404FF6FF7707EA06172F433B430181F1
:1029300002830384F0BD30B502460020002300244A
:10294000158A05EA0103958905EA010413B10CB162
:10295000012000E0002030BD70B505460C4624483B
:1029600085420ED0234885420BD0B5F1804F08D068
:102970002148854205D02148854202D02048854221
:1029800000D100E000BF208850B92389A288618867
:102990002846FFF7B3FCE188284600F086F925E0D9
:1029A000208804280AD12389A28861882846FFF755
:1029B000E5FCE188284600F081F917E02088082826
:1029C0000AD12389A28861882846FFF723FDE18880
:1029D000284600F080F909E02389A288618828460A
:1029E000FFF760FDE188284600F07EF970BD000029
:1029F000002C014000340140000400400008004069
:102A0000000C0040002101804180012181800021D3
:102A1000C180018170471AB183890B43838102E031
:102A200083898B438381704770B500240022002383
:102A3000058C4FF6FE7635400584028C8388048B26
:102A40004FF68F752C40B51E2C400D882C43751EFB
:102A50002A400D892A434D882A43144DA8420BD0A1
:102A6000134DA84208D0134DA84205D0124DA842DC
:102A700002D0124DA84213D14FF6F7752A404D8966
:102A80002A434FF6FB752A408D882A434FF6FF658F
:102A90002B404FF6FF552B408D892B43CD892B437F
:102AA00083800483CD888586028470BD002C01401C
:102AB0000034014000400140004401400048014012
:102AC00070B5002400220023058C4FF6EF763540C8
:102AD0000584028C8388048B48F6FF752C404FF6E2
:102AE000FF452C400D884FF6FF7606EA05252C435E
:102AF0004FF6DF752A400D8906EA05152A434D88F1
:102B000006EA05152A43154DA84202D0144DA842E5
:102B10001DD14FF67F752A404D894FF6FF7606EAA4
:102B200005152A434FF6BF752A408D8806EA05151C
:102B30002A434FF6FF352B404FF2FF752B408D890E
:102B400006EA85052B43CD8906EA85052B4383805C
:102B50000483CD880587028470BD0000002C0140ED
:102B60000034014070B5002400220023058C4FF68C
:102B7000FF6635400584028C8388848B4FF68F7501
:102B80002C404FF6FC752C400D882C434FF6FF551A
:102B90002A400D894FF6FF7606EA05252A434D881F
:102BA00006EA05252A43154DA84202D0144DA84235
:102BB0001DD14FF2FF752A404D894FF6FF7606EA88
:102BC00005252A434FF6FF352A408D8806EA05255C
:102BD0002A434EF6FF752B404DF6FF752B408D892D
:102BE00006EA05152B43CD8906EA05152B4383809C
:102BF0008483CD888587028470BD0000002C01404D
:102C00000034014070B5002200230024058C4EF6EC
:102C1000FF7635400584038C8488828B48F6FF75E7
:102C20002A404FF6FF452A400D884FF6FF7606EA08
:102C300005252A434DF6FF752B400D8906EA05351B
:102C40002B434D8806EA05352B430B4DA84202D095
:102C50000A4DA84208D14BF6FF752C408D894FF6DE
:102C6000FF7606EA85152C4384808283CD88A0F800
:102C70004050038470BD0000002C0140003401402E
:102C80000021018041808180C18001814181818159
:102C9000C18170478186704701877047818770477F
:102CA000A0F84010704781847047028B4FF6F37391
:102CB0001A400283028B0A4302837047028B4FF251
:102CC000FF331A400283028B4FF6FF7303EA01239E
:102CD0001A4302837047828B4FF6F3731A40828344
:102CE000828B0A4382837047828B4FF2FF331A40F4
:102CF0008283828B4FF6FF7303EA01231A43828398
:102D000070470000002202881D4B98420ED01D4BD8
:102D100098420BD0B0F1804F08D01B4B984205D0A1
:102D20001A4B984202D01A4B984204D14FF68F7337
:102D30001A404B881A43174B984207D0164B9842BB
:102D400004D04FF6FF431A40CB881A4302808B8889
:102D500083850B8803850A4B98420BD0094B984218
:102D600008D00E4B984205D00D4B984202D00D4B27
:102D7000984201D10B7A03860123838270470000B9
:102D8000002C0140003401400004004000080040D5
:102D9000000C0040001000400014004000400140C2
:102DA00000440140004801404FF6FF71818000213E
:102DB0000180C180418001727047000010B500247D
:102DC00040F22551054800F028F830B1034800F0E2
:102DD0004EF8C4B2204600F003F810BD00380140A0
:102DE00010B5044600BF8021044800F009F800280F
:102DF000F9D02146014800F03FF810BD00380140ED
:102E000002460020B1F5007F00D100BF13880B40BF
:102E10000BB1012000E00020704770B5024600248D
:102E200000230025002040F66A16B14200D100BF01
:102E3000C1F3421501F01F03012606FA03F3012D29
:102E400002D19689334006E0022D02D1168A334022
:102E500001E0968A33400C12012606FA04F4168823
:102E6000344013B10CB1012000E0002070BD0146D8
:102E70008888C0F308007047C1F308028280704759
:102E800010B502460A4850F8220000280EDD094B12
:102E900053F82200002801DB034600E04342044CC3
:102EA00054F82240A34201DB002010BD0846FCE795
:102EB000BC060020AC06002000BFFEE702E008C808
:102EC000121F08C1002AFAD170477047002001E0A4
:102ED00001C1121F002AFBD17047000010B50E4837
:102EE00000680E49B0FBF1F0C4B26FF00400FFF7C8
:102EF000BFF9E11704EB5171C910094A117010466E
:102F0000007800EB4001C1EBC0104FF6FF7101EA01
:102F1000C0000449088010BD0000002040420F009E
:102F2000140000201600002001460D4A12884A4372
:102F30004FF0E0235A6100229A6101221A6100BF1A
:102F40004FF0E022106900F001021AB100F4803263
:102F5000002AF5D000224FF0E0231A619A617047F1
:102F60001600002008B501210820FFF7C1F84FF432
:102F70004060ADF8000010208DF8030002208DF8AD
:102F8000020069460448FDF783FF4FF440610248A0
:102F9000FEF75BF808BD0000000C01401CB5FDF712
:102FA00007FCFFF7E1FAFFF761FB4FF440614A4885
:102FB000FEF74DF88FE0FDF729FC4848007810B186
:102FC0000020464908704648007800287DD000203F
:102FD00043490870082343A201460090FEF712FF00
:102FE0000020082341A219460090FEF70BFF0020A5
:102FF000082340A210210090FEF704FF01200821C1
:103000000223CDE900103D48027800212020FEF780
:10301000B3FE012008210223CDE9001038480278D0
:103020002020FEF7A9FE012008210223CDE900108F
:103030003448028810212020FEF79EFE32480468A2
:1030400001200821CDE90010002C01DB204600E022
:10305000604202460A2300214020FEF78DFE2B48E5
:10306000046801200821CDE90010002C01DB204676
:1030700000E0604202460A2308214020FEF77CFE61
:103080002348046801200821CDE90010002C01DB51
:10309000204600E0604202460A2310214020FEF74D
:1030A0006BFE1C48046801200821CDE90010002CAB
:1030B00002DB204601E008E0604202460A231821B4
:1030C0004020FEF759FEFEF785FD1348007810B149
:1030D0000020114908706EE7000C014054000020E8
:1030E000550000205461736B3A0000005374657002
:1030F0003A00000054696D653A000000600000204D
:103100006100002058000020180000201C00002052
:10311000200000202400002056000020000801406C
:103120000008000004000000000C01400100000045
:1031300008000000001001404000000010000000E6
:1031400000100140000100001000000000080140D4
:103150000001000004000000000C0140020000001B
:103160000800000000100140800000001000000076
:103170000010014000020000100000000100640087
:10318000FA0F000002006400000200000300F401D6
:10319000000200000000000000000000002F0000FE
:1031A00000000700070000147F147F1400242A7F0A
:1031B0002A12006264081323003649552250000089
:1031C0000503000000001C224100000041221C00F9
:1031D0000014083E08140008083E0808000000A07B
:1031E0006000000808080808000060600000002077
:1031F00010080402003E5149453E0000427F400055
:10320000004261514946002141454B3100181412DA
:103210007F10002745454539003C4A4949300001A7
:103220007109050300364949493600064949291EF6
:103230000000363600000000563600000008142258
:103240004100001414141414000041221408000258
:103250000151090600324959513E007C1211127C7D
:10326000007F49494936003E41414122007F4141AA
:10327000221C007F49494941007F09090901003E9C
:103280004149497A007F0808087F0000417F4100DA
:10329000002040413F01007F08142241007F404050
:1032A0004040007F020C027F007F0408107F003E38
:1032B0004141413E007F09090906003E4151215E1E
:1032C000007F091929460046494949310001017F1B
:1032D0000101003F4040403F001F2040201F003FB1
:1032E0004038403F00631408146300070870080763
:1032F00000615149454300007F41410000552A5576
:103300002A55000041417F000004020102040040F0
:103310004040404000000102040000205454547812
:10332000007F484444380038444444200038444432
:10333000487F00385454541800087E0901020018D0
:10334000A4A4A47C007F080404780000447D40000D
:10335000004080847D00007F102844000000417FF1
:103360004000007C04180478007C080404780038CD
:103370004444443800FC242424180018242418FC55
:10338000007C0804040800485454542000043F44BE
:103390004020003C4040207C001C2040201C003C81
:1033A0004030403C004428102844001CA0A0A07CD1
:1033B000004464544C441414141414140000000009
:1033C00000000000000000000000FC000000000001
:1033D00002000000000C020C0200000000000000CF
:1033E00090D0BCD0BC900003000300001824FE4421
:1033F0008C000302070201001824D8B04C8000039F
:1034000000010201C038E438E000010202010202BA
:10341000080600000000000000000000000000F8A6
:103420000402000000010204000204F8000000048D
:10343000020100009060F8609000000001000000B0
:103440002020FC20200000000100000000000000FF
:1034500000000806000000002020202020000000BE
:10346000000000000000000000000002000000005A
:103470000080601C0200040300000000F804040443
:10348000F8000102020201000008FC000000000236
:103490000302000018844424180003020202020000
:1034A00008042424D80001020202010040B088FC74
:1034B00080000000000302003C242424C400010218
:1034C00002020100F824242CC000010202020100C3
:1034D0000C04E41C0400000003000000D824242491
:1034E000D80001020202010038444444F8000003FD
:1034F00002020100000010000000000002000000B5
:10350000000020000000000006000000002050889D
:1035100004020000000001029090909090000000D2
:10352000000000000002048850200002010000009A
:103530001804C4241800000002000000F804E494F9
:10354000F80001020202020000E09CF08000020389
:103550000000030204FC2424D8000203020201003C
:10356000F80404040C0001020202010004FC04043B
:10357000F80002030202010004FC24740C000203A0
:103580000202030004FC24740C0002030200000089
:10359000F0080444CC4000010202010004FC202099
:1035A000FC040203000003020404FC040400020201
:1035B00003020200000404FC0404060404030000E7
:1035C00004FC24D00C0402030200030204FC0400E7
:1035D0000000020302020203FC3CC03CFC000300AA
:1035E0000300030004FC30C4FC04020302000300D7
:1035F000F8040404F80001020202010004FC24247F
:103600001800020302000000F8848404F80001029C
:103610000207050004FC2464980002030200030270
:10362000182424448C000302020201000C04FC0450
:103630000C0000020302000004FC0000FC04000176
:1036400002020100047C80E01C0400000300000072
:103650001CE03CE01C00000300030000049C609C94
:103660000400020300030200041CE01C040000022A
:10367000030200000C84641C040002030202030025
:103680000000FE020200000007040400000E30C02B
:103690000000000000010200000202FE0000000421
:1036A0000407000000040204000000000000000005
:1036B00000000000000008080808080800000200D8
:1036C00000000000000000000040A0A0C0000001B9
:1036D0000202030204FC2020C000000302020100D9
:1036E00000C02020600000010202020000C020246F
:1036F000FC0000010202030200C0A0A0C000000103
:10370000020202000020F824240400020302020046
:103710000040A0A0602000070A0A0A0404FC202040
:10372000C0000203020003020020E40000000002C7
:1037300003020000000020E4000008080807000061
:1037400004FC80E020200203020003020404FC00C9
:103750000000020203020200E020E020C00003009B
:103760000300030020E02020C00002030200030247
:1037700000C02020C00000010202010020E0202043
:10378000C000080F0A02010000C02020E000000174
:10379000020A0F0820E0402020000203020000007F
:1037A0000060A0A020000002020203000020F82018
:1037B000000000000102020020E00020E000000103
:1037C0000202030220E020806020000003010000CC
:1037D0006080E080600000030003000020608060E3
:1037E000200002030003020020E02080602008087F
:1037F000070100000020A060200000020302020078
:10380000000020DE0200000000070400000000FFAE
:1038100000000000000F00000002DE200000000495
:103820000700000002010204040200000000000082
:103830000000000000000000000000000000000088
:10384000000000F80000000000000033300000001D
:1038500000100C06100C0600000000000000000024
:1038600040C07840C0784000043F04043F04040096
:10387000007088FC08300000001820FF211E0000A6
:10388000F008F000E018000000211C031E211E00BB
:1038900000F00888700000001E2123241927211041
:1038A00010160E00000000000000000000000000E4
:1038B000000000E01804020000000007182040008B
:1038C00000020418E000000000402018070000007B
:1038D000404080F0804040000202010F01020200DF
:1038E000000000F0000000000101011F01010100C3
:1038F000000000000000000080B070000000000028
:1039000000000000000000000001010101010101B0
:103910000000000000000000003030000000000047
:10392000000000008060180400601806010000001C
:1039300000E010080810E000000F102020100F0019
:10394000001010F8000000000020203F20200000A0
:1039500000700808088870000030282422213000F8
:1039600000300888884830000018202020110E0000
:103970000000C02010F8000000070424243F2400A9
:1039800000F80888880808000019212020110E007E
:1039900000E0108888180000000F112020110E0090
:1039A00000380808C83808000000003F0000000088
:1039B0000070880808887000001C222121221C0049
:1039C00000E010080810E0000000312222110F0072
:1039D000000000C0C0000000000000303000000007
:1039E0000000008000000000000080600000000077
:1039F0000000804020100800000102040810200090
:103A000040404040404040000404040404040400DA
:103A1000000810204080000000201008040201006F
:103A2000007048080808F00000000030360100006F
:103A3000C030C828E810E0000718272423140B0022
:103A40000000C038E0000000203C2302022738209C
:103A500008F8888888700000203F202020110E0080
:103A6000C030080808083800071820202010080077
:103A700008F808080810E000203F202020100F0060
:103A800008F88888E8081000203F2020232018002C
:103A900008F88888E8081000203F20000300000094
:103AA000C03008080838000007182020221E020035
:103AB00008F808000008F808203F210101213F20F4
:103AC000000808F8080800000020203F202000001F
:103AD00000000808F8080800C08080807F0000000F
:103AE00008F888C028180800203F20012638200048
:103AF00008F8080000000000203F202020203000AF
:103B000008F8F800F8F80800203F003F003F2000C8
:103B100008F830C00008F808203F200007183F00D0
:103B2000E01008080810E0000F10202020100F00FF
:103B300008F808080808F000203F210101010000F2
:103B4000E01008080810E0000F18242438504F0037
:103B500008F8888888887000203F2000030C3020F7
:103B600000708808080838000038202121221C0035
:103B7000180808F8080818000000203F200000007E
:103B800008F808000008F808001F202020201F0067
:103B90000878880000C83808000007380E010000C7
:103BA000F80800F80008F800033C0700073C030091
:103BB000081868808068180820302C03032C3020F7
:103BC0000838C800C83808000000203F2000000066
:103BD00010080808C83808002038262120201800BE
:103BE000000000FE020202000000007F4040400092
:103BF000000C30C000000000000000010638C000CA
:103C000000020202FE000000004040407F00000071
:103C10000000040202020400000000000000000096
:103C20000000000000000000808080808080808094
:103C3000000202040000000000000000000000007C
:103C400000008080808000000019242222223F2072
:103C500008F8008080000000003F112020110E00B5
:103C60000000008080800000000E11202020110044
:103C7000000000808088F800000E112020103F20F6
:103C80000000808080800000001F2222222213007A
:103C9000008080F0888888180020203F20200000C5
:103CA0000000808080808000006B9494949360007A
:103CB00008F8008080800000203F210000203F2085
:103CC00000809898000000000020203F2020000085
:103CD000000000809898000000C08080807F000075
:103CE00008F8000080808000203F24022D30200052
:103CF000000808F8000000000020203F20200000FD
:103D00008080808080808000203F20003F20003F16
:103D10008080008080800000203F210000203F2024
:103D20000000808080800000001F202020201F00D5
:103D3000808000808000000080FFA12020110E0004
:103D40000000008080808000000E112020A0FF80F5
:103D5000808080008080800020203F2120000100A2
:103D600000008080808080000033242424241900F7
:103D7000008080E0808000000000001F2020000004
:103D80008080000000808000001F202020103F2045
:103D9000808080000080808000010E3008060100D5
:103DA00080800080008080800F300C030C300F007A
:103DB00000808000808080000020312E0E312000A5
:103DC000808080000080808080818E7018060100D5
:103DD00000808080808080000021302C22213000F3
:103DE00000000000807C020200000000003F404014
:103DF00000000000FF00000000000000FF000000C5
:103E00000002027C800000000040403F00000000F3
:103E1000000601010202040400000000000000008E
:103E20000000000000000000000000000000000092
:103E30000000000000000000000000000000000082
:103E4000000000000000000000F0F0F000000000A2
:103E50000000000000017F010000000000000000E1
:103E6000001C1C1C0000000000008060301C8C60E6
:103E7000301C0C00000000000000000000000000EA
:103E8000000000000000000000000000000000E052
:103E90000000000000E000000086E69F868686861F
:103EA000E69F860000011F01010101011F010100C1
:103EB000000080C06020F820E0C000000000030780
:103EC0000C18FF70E18100000000070F10107F1038
:103ED0000F0700008060206080000000E0200000EC
:103EE0000F3020309F70DC371030C0000000100E03
:103EF00003000718101807000000C02020E0C000D1
:103F00000000000080E01F38E88703C43C04000084
:103F1000070F1810100B070D1010080000808C4CB4
:103F20003800000000000000000000000000000059
:103F30000000000000000000000000000000000081
:103F400000000000000080E03008040000000000D5
:103F500000FEFF0100000000000000000000030F51
:103F60001820400000040830E0800000000000003D
:103F70000000000001FFFE000000000000402018CB
:103F80000F03000000000000000000000000C0005F
:103F900000000000004266663C18FF183C6666425E
:103FA000000000000000030000000000000000000E
:103FB0000000800000000000001010101010FF1022
:103FC00010101010000000000000030000000000AE
:103FD00000000000000000000000000000000000E1
:103FE000000000000000000000808C4C3800000041
:103FF00000000000000000000000000000000000C1
:104000000010101010101010101010000000000010
:1040100000000000000000000000000000000000A0
:104020000000000000000000000000000000000090
:1040300000001C1C1C00000000000000000000002C
:1040400000000000E0380C000000000080701C033D
:10405000000000000060380E0100000000000000B9
:10406000000080C060202060C080000000FEFF01D2
:104070000000000001FFFE000001070E18101018DC
:104080000E0701000000808080C0E00000000000FA
:104090000000000000FFFF00000000000000101002
:1040A000101F1F10101000000080402020202060F2
:1040B000C080000000030300804020381F0700007C
:1040C000001C1A1918181818181F00000080C020AA
:1040D000202060C080000000000303001010182F93
:1040E000E780000000070F10101010180F070000E5
:1040F000000000000000C0E0F000000000C0B08838
:10410000868180FFFF808000000000000010101FEB
:104110001F1010000000E0606060606060600000E0
:1041200000003F1008080818F0E0000000070B101E
:104130001010101C0F030000000080C04020202041
:10414000E0C0000000FCFF211008080818F0E000A3
:104150000001070C18101010080F03000000C0E049
:104160006060606060E06000000003000000E01834
:104170000700000000000000001F1F0000000000FA
:104180000080C0602020202060C080000087EF2CCD
:104190001818303068CF830000070F081010101077
:1041A000180F07000000C0C020202020C0800000A1
:1041B000001F3F604040402010FFFE0000000C1C2C
:1041C000101010080F0300000000000000000000A5
:1041D0000000000000000000000E0E0E00000000B5
:1041E00000000000001C1C1C00000000000000007B
:1041F000000000000000000000000000000C0C00A7
:10420000000000000000000000583800000000001E
:104210000000000000000080402010000000102876
:1042200044820100000000000000000000000102C4
:104230000408100000000000000000000000000062
:104240000084848484848484848484000000000046
:10425000000000000000000000001020408000006E
:10426000000000000000000000000182442810004F
:1042700000001008040201000000000000C020201F
:104280001010101030E0C0000003030000F0100810
:104290000C070300000000001C1C1C0000000000B4
:1042A000000000C0406020202040C00000FCFF0152
:1042B000F00E03C1FE03807F0001070E08111110EC
:1042C000110904020000000080E0E000000000008E
:1042D0000000807C4340477FF880000010181F10CA
:1042E00000000000131F1C1020E0E02020202060B0
:1042F000C080000000FFFF10101010182FE7800092
:10430000101F1F1010101010180F0700000080C0A1
:10431000402020202060E00000FCFF0100000000A1
:10432000000001000001070E18101010080403001F
:1043300020E0E02020202040C080000000FFFF009F
:104340000000000001FFFE00101F1F1010101808D1
:104350000E07010020E0E0202020202020608000C7
:1043600000FFFF101010107C00000000101F1F1035
:10437000101010101018060020E0E020202020204F
:104380006060800000FFFF101010107C0000010032
:10439000101F1F100000000000000000000080C07F
:1043A0006020202040E0000000FCFF0100004040B1
:1043B000C0C140400001070E181010100F0F000080
:1043C00020E0E0200000000020E0E02000FFFF10DF
:1043D0001010101010FFFF00101F1F100000000031
:1043E000101F1F100000202020E0E02020200000EF
:1043F0000000000000FFFF0000000000000010109F
:10440000101F1F101010000000000000202020E0EE
:10441000E020202000000000000000FFFF0000005E
:104420000060E0808080C07F3F00000020E0E0204E
:10443000000020A06020200000FFFF30187CE3C0B7
:1044400000000000101F1F10000001131F1C181097
:1044500020E0E020000000000000000000FFFF005E
:104460000000000000000000101F1F1010101010AE
:104470001018060020E0E0E000000000E0E0E0208E
:1044800000FF013FFEC0E01E01FFFF00101F1000F3
:10449000031F0300101F1F1020E0E0C000000000F9
:1044A0000020E02000FF0003071C78E08000FF00F0
:1044B000101F100000000000030F1F00000080C04C
:1044C00060202060C080000000FEFF0100000000AE
:1044D00000FFFE000001070E181010180C07010065
:1044E00020E0E0202020202060C0800000FFFF208E
:1044F00020202020301F0F00101F1F100000000080
:1045000000000000000080C060202060C08000002B
:1045100000FEFF010000000000FFFE000001070E8A
:104520001111133C7C67210020E0E0202020202096
:1045300060C0800000FFFF101030F0D0080F0700AF
:10454000101F1F10000000030F1C10100080C0601F
:10455000202020204040E00000070F0C18183030C9
:1045600060E08100001F0C0810101010180F0700E9
:104570008060202020E0E0202020608001000000FA
:1045800000FFFF000000000100000000101F1F10CE
:104590000000000020E0E020000000000020E020FB
:1045A00000FFFF00000000000000FF0000070F18E0
:1045B00010101010100807002060E0E0200000003C
:1045C00020E060200000077FF88000807C0300006E
:1045D00000000000071F1C070000000020E0E02092
:1045E00000E0E0200020E0200007FFF8E01FFFFCD3
:1045F000E01F00000000031F0300011F0300000074
:10460000002060E0A0000020E06020000000000327
:104610008F7CF8C6010000000010181E130001175F
:104620001F1810002060E0E02000000020E0602063
:10463000000001073EF8E01807000000000000102D
:10464000101F1F101000000000806020202020A0FC
:10465000E0E0200000000000C0F03E0F030000007A
:1046600000101C1F1710101010180600000000008A
:1046700000FC0404040404000000000000FF00002B
:104680000000000000000000007F4040404040006B
:10469000000010E00000000000000000000000002A
:1046A000031C608000000000000000000000000308
:1046B0000C70800000000404040404FC00000000EE
:1046C00000000000000000FF00000000000040406B
:1046D0004040407F0000000000000010080C040C67
:1046E00008100000000000000000000000000000B2
:1046F00000000000000000000000000000000000BA
:1047000000000000000000000000000000000000A9
:104710000000000080808080808080808080808099
:104720000000000404080800000000000000000071
:104730000000000000000000000000000000000079
:104740000000000000000000000000000000000069
:10475000000098D844642424FCF80000000F1F18BF
:10476000101010081F1F10180020E0F000000000BB
:10477000000000000000FFFF180804040CF8F0001F
:1047800000001F0F18101010180F03000000000089
:10479000000000000000000000E0F8180404043CE1
:1047A0003800000000030F0C101010100806000065
:1047B0000000000000000020E0F0000000E0F81C15
:1047C00004040408FFFF000000030F181010100875
:1047D0001F0F0800000000000000000000000000A3
:1047E0000000E0F8484444444C7870000000030F97
:1047F0000C181010100804000000000080C0602099
:1048000020E0C00000040404FFFF040404040000CE
:10481000000010101F1F101010000000000000000A
:104820000000000000000000000070F88C04048C00
:10483000F874040C007076CF8D8D8D89C878700067
:104840000020E0F000000000000000000000FFFF7A
:1048500008040404FCF8000000101F1F10000010E2
:104860001F1F10000000000000606000000000003A
:104870000000040404FCFC00000000000000101014
:10488000101F1F101010000000000000000000604A
:104890006000000000000000040404FCFC000000B4
:1048A0000000C0C08080C07F3F0000000020E0F01A
:1048B00000000000000000000000FFFF80C0F41CAA
:1048C0000404000000101F1F1100031F1C10100023
:1048D0000000202020E0F0000000000000000000A8
:1048E00000FFFF000000000000001010101F1F104C
:1048F0001010000000000000000000000000000098
:1049000004FCFC0804FCFC0804FCFC00101F1F1045
:10491000001F1F10001F1F100000000000000000FB
:10492000000000000004FCFC08080404FCF800007F
:1049300000101F1F100000101F1F100000000000BB
:10494000000000000000000000E0F0180C04040C5F
:1049500018F0E00000030F0C101010100C0F0300F3
:104960000000000000000000000000000004FCFC4B
:10497000080404040CF8F0000080FFFF8890101079
:104980001C0F0300000000000000000000000000F9
:1049900000E0F81C04040408F8FC000000030F18F1
:1049A00010109088FFFF8000000000000000000051
:1049B00000000000040404FCFC100804040C0C00BB
:1049C0001010101F1F101010000000000000000049
:1049D000000000000000000000003078CCC4848497
:1049E000840C1C0000001E1810101011190F060076
:1049F0000000000000C000000000000000040404EB
:104A0000FFFF040404000000000000000F1F10104E
:104A1000100C00000000000000000000000000007A
:104A20000004FCFE00000004FCFE000000000F1F5C
:104A3000181010081F0F0800000000000000000000
:104A40000000000000040C3CFCC40000C43C0C044A
:104A500000000000010F1E0E010000000000000019
:104A60000000000000000000043CFCC400E47CFCEA
:104A700084807C040000071F070000071F07000058
:104A80000000000000000000000000000004041C02
:104A90007CE4C0341C0404000010101C1601131F19
:104AA0001C181000000000000000000000000000C2
:104AB00000040C3CFCC400C43C0404000000C080A2
:104AC000C1370E01000000000000000000000000DF
:104AD0000000000000001C0404C4F47C1C0400005E
:104AE0000000101C1F17111010180E00000000000D
:104AF000000000F80C04000000000000001028EF87
:104B000000000000000000000000003F60400000C6
:104B1000000000000000FF00000000000000000096
:104B20000000FF0000000000000000000000FF0087
:104B3000000000000000040CF8000000000000006D
:104B400000000000EF28100000000000000040609E
:104B50003F000000000000000018060202040810D8
:104B600020203008000000000000000000000000CD
:104B7000000000000000000000000000000000C075
:104B800080808080808080FC84808080808080C065
:104B9000C0000000000000FF7F404040404040FF58
:104BA00040404040404040FF7F00000000000000C7
:104BB000000000000000007F700000000000000006
:104BC00000000000000000C080808080808080FCA9
:104BD00084808080808080C0C0000000000000FFD2
:104BE0007F404040404040FF40404040404040FF08
:104BF0007F00000000000000000000000000007FB7
:104C00007000000000000000000000000000000034
:104C10000000000000000000000000FCF8000000A0
:104C20000000000000000000000000000000000084
:104C3000FFFE020202020202020202FFFF02020261
:104C4000020202020202FF03000000000000000056
:104C50001F1F040404040404040404FFFF040404E8
:104C60000404040404041F0000000000000000000D
:104C700000000000000000000000007F3F00000076
:104C80000000000000000000000000000000000024
:104C90000000000000000000000000000000000014
:104CA000000000000000000000F8F8F0F0702000A4
:104CB00000000000000000000000000000000000F4
:104CC00000000000000000000000000000000000E4
:104CD0000000000080000000000000000000000054
:104CE000000000000000000000FFFFFFFF000000C8
:104CF00000000000000000000000000000000000B4
:104D000080800000000000000000000000000000A3
:104D10000000000000FFFFFE060606060606060667
:104D2000060606060606060606FFFFFFFF0606063F
:104D3000060606060606060606060606060606FF1A
:104D4000FFFFFF070200000000000000000000005D
:104D50000000000000FFFFFF000000000000000056
:104D6000000000000000000000FFFFFFFF00000047
:104D7000000000000000000000000000000000FF34
:104D8000FFFFFF0000000000000000000000000026
:104D90000000000000FFFFFF181818181818181856
:104DA000181818181818181818FFFFFFFF181818E7
:104DB000181818181818181818181818181818FF8C
:104DC000FFFFFF00000000000000000000000000E6
:104DD00000000000020101000000000000000000CF
:104DE000000000000000000000FFFFFFFF000000C7
:104DF00000000000000000000000000000000001B2
:104E000001000000000000000000000000000000A1
:104E10000000000000000000000000000000000092
:104E2000000000000000000000FFFFFFFF00000086
:104E30000000000000000000000000000000000072
:104E40000000000000000000000000000000000062
:104E50000000000000000000000000000000000052
:104E60000000000000000000001F1F0F0F000000E6
:104E70000000000000000000000000000000000032
:104E8000000000000000000000000000AC4E000820
:104E900000000020640100005A0700080C4F0008C1
:104EA00064010020E4090000CC2E00081184A24A0D
:104EB0000400092801020304060708095DCDCCCCD3
:104EC0003E08021C3D1201255E01F61769691201B8
:104ED00025F401FD075A030889184BE8031849080F
:104EE000B930220B1A0208190539104BFA0F400984
:104EF00016102940E930E950014822641B2074044F
:0C4F00001A8C041AA4041AF4049122056F
:0400000508000131BD
:00000001FF
